:1000000000600020A90100003F020000E99000000C
:1000100043020000450200004702000049020000C0
:100020000000000000000000000000004B02000083
:100030004D020000000000004F020000554F00007C
:10004000F16E0000F96E0000016F0000096F000002
:10005000116F0000196F0000216F0000296F000070
:10006000316F0000396F0000416F0000496F0000E0
:10007000516F0000596F0000616F0000696F000050
:10008000716F0000796F0000816F0000896F0000C0
:10009000916F0000996F0000A16F0000A96F000030
:1000A000B16F0000B96F0000C5480000C16F0000CB
:1000B000C96F0000D16F0000D96F000061450000DA
:1000C000E16F0000E1470000E96F0000F16F000000
:1000D000F96F00000170000009700000117000004D
:1000E00019700000217000002970000031700000BC
:1000F000397000004170000049700000517000002C
:10010000597000006170000069700000717000009B
:10011000797000008170000089700000917000000B
:1001200099700000A1700000A9700000B17000007B
:10013000B9700000C1700000C9700000D1700000EB
:10014000D9700000E1700000E9700000F17000005B
:10015000F9700000017100000971000011710000C8
:10016000197100002171000029710000689F0000D2
:10017000000000200C000000689F00000000000448
:1001800000000000689F0000002000040000000044
:100190000C0000205C0800000000000400000000CB
:1001A000002000040000000072B6134B134A1748E9
:1001B0000360196881F3088882F30A8804F010FF4D
:1001C0000F4B07E003F10C049A685968186800F0B7
:1001D0001FF823460B4A9342F4D306E01C465968A5
:1001E00054F8080B00F022F82346074A9342F5D34F
:1001F00062B608F09AFFFEE700000000005A0020F7
:100200006C01000090010000A801000008ED00E072
:100210000023934209D210B450F8044B41F8044B28
:1002200004339342F8D310BC70477047002303E0B7
:10023000002240F8042B04338B42F9D37047FEE7C9
:10024000FEE7FEE7FEE7FEE7FEE7FEE7FEE7FEE786
:10025000FEE7FEE7FFFFFFFF80B584B000AFC7E910
:1002600000010023FB6026E033A3D3E90023D7E994
:10027000000109F01BFC0346002B0ED02EA3D3E98E
:100280000023D7E9000106F063FA02460B46C7E9EE
:100290000023FB680533FB600DE04FF000022A4BA2
:1002A000D7E9000106F054FA02460B46C7E90023DD
:1002B000FB680133FB604FF00002234BD7E90001DC
:1002C00009F0F4FB0346002BCED126E01CA3D3E9B2
:1002D0000023D7E9000109F069FB0346002B0ED08B
:1002E00015A3D3E90023D7E9000106F0B3F90246CC
:1002F0000B46C7E90023FB68053BFB600DE04FF0B0
:100300000002114BD7E9000106F0A4F902460B46A2
:10031000C7E90023FB68013BFB604FF000020B4B79
:10032000D7E9000109F042FB0346002BCED1FB6860
:1003300018461037BD4680BD00000000006AF84036
:10034000F168E388B5F8E43E000024400000F03F87
:1003500080B584B000AF78604FF000022C4BC7E945
:1003600002231FE07B68042B0EDD27A3D3E90023C3
:10037000D7E9020106F06EF902460B46C7E90223EF
:100380007B68053B7B600DE04FF00002214BD7E915
:10039000020106F05FF902460B46C7E902237B68BB
:1003A000013B7B607B68002BDCDC20E07B6813F189
:1003B000040F0EDA14A3D3E90023D7E9020106F0F3
:1003C000C7F902460B46C7E902237B6805337B6009
:1003D0000DE04FF000020F4BD7E9020106F0B8F92B
:1003E00002460B46C7E902237B6801337B607B68CA
:1003F000002BDBDBD7E90223104619461037BD4638
:1004000080BD00BFAFF3008000000000006AF8402C
:100410000000F03F000024402DE9F84316461F4637
:1004200004460D46002200233046394609F0A6FA5C
:1004300078B1002200232046294609F09FFA40B1F6
:1004400021220024364B374D1A6020462946BDE84C
:10045000F8833046394608F073FE804689462046C8
:10046000294608F06DFE02460B464046494609F013
:100470009DFAC0B122462B463046394606F068F94F
:1004800008F05EFE1EA3D3E9002309F08FFA50B1F5
:10049000002200232046294609F088FA58B31AA5FD
:1004A000D5E90045D1E732463B462046294606F0CD
:1004B0004FF901F049FB002204460D460023304667
:1004C000394609F073FA0028BFD0002200232046E5
:1004D000294609F096FA0EA3D3E9002330B120464D
:1004E000294606F0CFF904460D46AEE720462946D8
:1004F00006F0A2FAF7E708A5D5E90045A5E700BF91
:100500002342920CA19CC73B182D4454FB21F9BFF8
:10051000182D4454FB210940182D4454FB21F93F68
:10052000A00700200000F0FFF7B5002300220446DA
:100530000D4609F03BFAA0B111A1D1E90001224614
:100540002B4606F09FF9012306460F46CDE90033FE
:10055000204632463B4605F1004101F0F5F903B073
:10056000F0BD07A3D3E900232046294606F064FA2C
:1005700001230246CDE9003320460B462946ECE72D
:10058000182D4454FB21F93F2DE9F04F9DB014463E
:100590000693D1E90023CDE90423059B8246089305
:1005A00047F6F073089ADDF89C9033EA124320D1A5
:1005B0000023E370C2F31303049A134340F0A884AA
:1005C000089B002BC0F2AA84069B98070FD4A84A68
:1005D00013F0040FA74B18BF134669226E20662143
:1005E0002270269A6070A1700325136039E3A24B34
:1005F000F3E720F02003412B00F0F082DDE9040155
:100600000022002309F0D2F90546002834D0DDE9A4
:10061000040303F1004101230FAA079309F00CF82A
:1006200040F22D15CDE910014FF47A710F9A002098
:100630005543A5F5AB531C3B93FBF1FB8F49ABEB4B
:10064000020205F053FE41F294139D42CDE91A01D6
:100650001FDC81A3D3E90023CDE91623CBF10005EC
:10066000E9071FD4DDE91601DDE9162305F0F2FFE5
:100670006D10CDE91601F3E70023DDE90401002246
:1006800009F07CF90346002840F0A282DDE904016C
:10069000C2E700227A4BCDE91623BBF1000F0BD045
:1006A0005D46DDE7DDE91601DDE91A2305F0D2FF3D
:1006B000012DCDE91A01D5D1DDE91001DDE91A23BB
:1006C00006F046F80026CDE912016E4FDDE9120171
:1006D00063A3D3E9002309F069F9002840F093806F
:1006E0000026684FDDE912015FA3D3E9002309F07A
:1006F000DDF9002840F09A80DDE9120109F0F2F8F6
:1007000005468BEAEB73A3EBEB7309930F9A28462C
:10071000ABEB020609F02AF9324605F0E7FD0022AC
:100720000023BBF1000FCDE91201CDE9142380F2C3
:10073000AB8049A1D1E90001CDE91601CDE918232B
:10074000DDE91667DDE916010026DDE91823CDE9AC
:100750000A2332463B4606F095F8DDE90A2306F007
:100760006BF9CDE91801CDE91667DDE91601002224
:10077000434B05F06FFF02460B4600203F4906F051
:1007800081F800223E4B05F0E3FFCDE91801DDF8CA
:10079000248018F0010F40F08E80DDE91623DDE99A
:1007A0001801DDE91867CDE90A011046194606F07F
:1007B00043F9DDE90A2306F03FF932463B4605F0EE
:1007C00049FFCDE91801DDE91601DDE9162305F041
:1007D00041FFCDE91601DDE91667DDE916010026C6
:1007E000DDE91823CDE90A2332463B4606F04AF8F4
:1007F000DDE90A2306F020F94FEA6808CDE918017F
:10080000CDE91667C5E7DDE9120132463B4605F042
:1008100021FFCDE91201DDE91A0132463B4605F020
:1008200097FF0BF1FF3BCDE91A014FE7DDE912011C
:1008300032463B4605F08CFFCDE91201DDE91A0195
:1008400032463B4605F006FF0BF1010BCDE91A01DC
:1008500048E700BFAFF300809A9999999999C93FE9
:1008600000000000006AF8400000000080842E4173
:10087000629D0000E69D0000609D00000000F03FCA
:1008800000001440000024404FF00002B64BCDE9B8
:1008900016234FF000024FF00003CDE918237FF438
:1008A00076AFDDE91201DDE9102309F0D5F8002863
:1008B00047D1013D2AE7DDE91223CDE90A23DDE92D
:1008C0001823DDE91601CDE90C23DDE91823DDE964
:1008D000146706F0B1F832463B4605F0BBFEDDE991
:1008E0000C2306460F46DDE90A0105F0B3FE024679
:1008F0000B463046394606F09FF8CDE91401DDE994
:100900001601DDE9122305F0A5FECDE91201DDE9AE
:100910001267DDE912010026DDE91423CDE90A237F
:1009200032463B4605F0AEFFDDE90A2306F084F8C7
:10093000B8F1010FCDE91401CDE912677FF42DAFB5
:10094000AFE7DDE91223DDE9100105F09BFFCDE9FA
:100950001001DDE91423DDE9100105F093FFCDE975
:100960001001DDE91A23DDE9100105F0F1FE7CA399
:10097000D3E90023CDE91001DDE9100105F06AFE9D
:10098000CDE91001DDE9100108F0ACFFDDE91067E9
:10099000804608F0EBFF02460B463046394605F02C
:1009A00071FF6FA3D3E9002305F054FECDE91001D8
:1009B000DDE9100108F096FF0646002EC0F2C28065
:1009C0006A4B9E4200F3C580B8F1000FC0F2DA8096
:1009D000664B984500F3DC80654A954200F3DE8063
:1009E000644B0A21B8FBF3F2B6FBF3F3624801FB58
:1009F000052500FB028201FB023800FB036301FBBB
:100A000003F60BF1FF3B21463027284601F8067B11
:100A100008F0CAFB404604F10C0108F0C5FB304663
:100A200004F1120108F0C0FB00232375079B0BF1B2
:100A3000050BE77443EA8B0B002B40F0D480069B38
:100A40009A0700F1CE804D4A13F0040F4C4B18BFAB
:100A500013463BF0010B269A48BF0BF1030BBAF18A
:100A6000670FD9F8001013604FEAAB0B0EDCBAF138
:100A7000600F00F3BA80BAF1450F00F0C881BAF1F7
:100A8000470F05D0BAF1410F00F0C6804FF0670A5A
:100A9000069B002943F400630693DCBF0123C9F8D9
:100AA0000030D9F8001020461129A8BF11210131CA
:100AB00008F054FBD9F8003083445B4540F3A28131
:100AC0001BF1040FC0F29E810BF101029B1AC9F8C1
:100AD0000030069ABBF1000FD9F8003002F400662E
:100AE00080F21481CBF100075A1CBA4280F2D78001
:100AF000302323702E2302256370D9F80030299A01
:100B00001360299B1B68002B02DD3E2363550135D2
:100B1000069B03F00803002E00F05B81002B40F0E1
:100B2000A080254415F8013C6A1E302B00F04F814F
:100B30003E2B00F04C812E2BA5EB040540F091805C
:100B4000013D8EE006F5742606F5107608F1FF38B3
:100B500033E7A6F57426A6F5107608F1010830E70C
:100B60000000000080842E41000014403F420F002E
:100B70009F860100A08601006079FEFF629D000053
:100B8000E69D000008F5742808F51078013D1BE784
:100B9000A8F57428A8F5107801351AE79D427FF76B
:100BA00032AF0A226FF0090795FBF2F107FB015300
:100BB0008B480D4600FB038393FBF2F807FB0833D9
:100BC00000FB0363053393FBF2F60BF1010B1AE70D
:100BD0006FF0040B2E46A846079514E74FF0000B64
:100BE0002DE7804B35E7804B33E7AAF16103062BF5
:100BF0003FF64CAF01A252F823F000BF190C0000E1
:100C00008D0A00008D0A00008D0A00000F0E000002
:100C1000D30A0000910A0000089B049DC3F30A5206
:100C2000C3F313000AB3A2F2FF33069E06F00806D0
:100C30000E4320D16D486E49002A14BF3122302264
:100C4000BAF1610F18BF0146204604F059FA694A0B
:100C50000599654B054613EA210338BF1346269ACA
:100C6000136028461DB0BDE8F08F55EA00030CBFA5
:100C70001346614BD9E7CDE9005002935F480B461C
:100C80005F49002A14BF31223022BAF1610F18BF28
:100C90000146204604F034FAD9E71546EBE05B4400
:100CA0009D1C122DC1BF299A113B1325136076B9E3
:100CB0002946204608F052FA48B17FEA0B0705F1B1
:100CC000010504D1637823702E23637019E7012F87
:100CD00004EB05030CD11A1B002A02DC302301357A
:100CE000F1E713F801299A70F5E713F80129DA7092
:100CF0001A1B002AF9DC302323702E2363703C2357
:100D0000A370289B013F02351F60FAE60BEB030737
:100D1000BD1C122D45DD26B91321204608F01EFA10
:100D2000E0B91323132B0CBF122213225A4519DDED
:100D3000621E04EB0B01907802F8010F9142FAD188
:100D40002E224A70D9F8002029995A44113A0A6093
:100D5000002A3AD03E225D1CE254D9E614230BF15E
:100D6000010BDFE7621CE11812F8010B914202F857
:100D7000020CF9D13C22ABEB030B01F8012C2899B2
:100D80000BF102020A602E22E254D9F800205D1C09
:100D9000002A3FF4BDAE29990A603E2262559D1C8F
:100DA000B6E63EB92946204608F0D8F910B10BF155
:100DB000010BFD1C631EA3449A7803F8012F9B4589
:100DC000FAD12E238BF80130A2E61D46A0E6154687
:100DD000A8E6D9F8002013437FF443AFB0E600BF84
:100DE00040420F00609D0000649D00006E9D000069
:100DF000669D0000E69D000001FCFFFF859D000050
:100E0000769D0000013BC9F80030AAF1020AD9F82A
:100E10000030112B05DD299A113B13601123C9F80D
:100E20000030069BD9F8005013F4006605F1020566
:100E300004D12946204608F091F983446378237051
:100E4000069BD9F8002023F4FE6323F007031B055B
:100E50001B0D13431CBF2E236370299B08BF012564
:100E60001B68002BC2BF3E23635501358EB1069B24
:100E70001B070ED4254415F8013C6A1E302B3FF4A5
:100E80000CAF3E2B3FF409AF2D1B2E2B08BF05F1F5
:100E9000FF35BBF1000FB6BF2D222B22CBF1000B8B
:100EA00060195FFA8AF6691CBBF57A7F067005F156
:100EB000020362540ADB4FF47A72BBFBF2F202F1D6
:100EC0003001E154184B03FB02BBEB1CBBF1630F79
:100ED0000ADD64229BFBF2F202F13001E1546FF073
:100EE000630101FB02BB01330A229BFBF2F2D2B287
:100EF00002F13001E154C2EB4211C2EB81020BF16D
:100F0000300B9D1C0BEB420B234483F801B0A8E689
:100F10006E2261201146054BFFF762BB69226E20ED
:100F20006621034BFFF75CBB18FCFFFFE69D00004A
:100F3000649D0000FFFFFFFF00232DE9F04F0446F2
:100F40009DB0CDE9043311920E78002E50D0252E9D
:100F5000DFF8CC9201F1010A4ED009EB060292F8BB
:100F600080206368D20703F1FF3324D555461AF871
:100F7000013B4B4493F88030DF07F7D46368013BB3
:100F8000002B636013DB23685A1C2260187809EB7E
:100F9000000393F88030DE0705D4214608F012FAEA
:100FA000AA465146D0E7049B01330493E6E7204666
:100FB00005F0E0F8EBE7002B636009DB23685A1CBF
:100FC00022601D78B54208D1049B01330493E8E701
:100FD000204605F0CFF80546F4E72146284608F0FC
:100FE000F1F9013504D1059B13B94FF0FF33059397
:100FF00005981DB0BDE8F08F4B784FF000082A2B04
:1010000006BF01F1020A0126002652460A20854940
:101010001AF8013B09EB030595F88050AD0600F185
:10102000038116F0080F08BF6FF000486C2B40F0EA
:1010300008819AF8003046F0020602F1020A782B85
:10104000D6DC572B00F30C81252B00F05381242B89
:10105000CEDD23F00203452BCAD14FF0FF35636884
:10106000AB46013B002B05F101056360C0F29081A6
:1010700023685A1C2260187809EB000393F880302B
:10108000DB07ECD4471CAED0B8F1000F00F08A812A
:101090002B2800F081812D2840F0848146F40077D0
:1010A00063680BF10205013B002B6360C0F276819F
:1010B00023685A1C2260187808F1FF3852A3D3E93C
:1010C0000023CDE9082300230022CDE90A230023D1
:1010D0009B4608F1FF390693B9F1FF3F40F0648168
:1010E000214608F06FF9DDE90A010A23032203FB18
:1010F0000BF393FBF2F3ABEB03084246109305F0BE
:10110000F5F8CDE90C01069808F030FC424605F0F0
:10111000EDF8BBF1000FCDE90A0180F2EC813CA3B0
:10112000D3E90023CBF1000BCDE908233AA3D3E99F
:1011300000234FF000084FF00009CDE906231BF013
:10114000010F39D0DDE90823DDE9060105F074FC63
:1011500002460B46CDE90E01DDE90C0105F07AFAF5
:1011600042464B46CDE90C01DDE90E0105F072FA6D
:10117000DDE90A2380468946DDE9080105F06AFABF
:1011800042464B4605F058FCDDE90A238046894675
:10119000DDE9060105F05EFA00220B46CDE90A23DF
:1011A00005F070FB42464B4605F046FCBBF1010FD3
:1011B0008046894600F0AB81DDE9062310461946DA
:1011C00005F03AFCDDE9082305F036FC02460B4643
:1011D000DDE9080105F03EFADDE90623CDE9080165
:1011E0001046194605F036FA00220B46CDE90623D3
:1011F00005F048FBDDE9082305F01EFC4FEA6B0B08
:10120000CDE908019BE700BF9A9999999999B93F4F
:10121000333333333333733E000000009999C93FB1
:10122000E79D0000CCCCCC0C88453FF7E1AE00FB3D
:101230000833B3F130083FF5DBAE524646F00806FE
:10124000E6E64C2B04D19AF8003046F01206F4E69C
:10125000682B7FF4F4AE9AF8003046F00406ECE612
:10126000583B202B3FF6C4AE01A252F823F000BF3A
:101270002D170000F10F0000F10F000035170000DE
:10128000F10F0000F10F0000F10F0000F10F00005E
:10129000F10F0000F10F0000F10F00001513000026
:1012A0007B1300005B1000005B1000005B1000006F
:1012B000F10F000037160000F10F0000F10F0000E1
:1012C000F10F0000F10F00003F1600005316000060
:1012D00081160000F10F0000F10F00008D160000D4
:1012E000F10F000023170000F10F0000F10F0000C4
:1012F0002D1700006368013B002B636005DB23684A
:101300005A1C22601D78252D5DE6204604F032FF30
:101310000546F8E716F0080F08BF4FF0010816F071
:10132000010609BF119B00251A1D1D6808BF1192F7
:10133000B8F1000F3FF45CAE049B9844049B01336A
:1013400004936368013B002B636010DB23685A1C25
:10135000226018780EB905F8010B049B4345EDD1C6
:10136000002E7FF41EAE059B0133059319E620463F
:1013700004F000FF421CEDD135E60A23CDF80080D1
:1013800046F02002204611A904F0B4FD0546F2E023
:10139000204604F0EFFE6FE6374681E6204604F073
:1013A000E9FE89E6374689E62E2811D179060FD461
:1013B00047F0400863680135013B002B63603CDB6C
:1013C00023685A1C22601878474609F1FF3983E6E2
:1013D000A24B034493F880309A0632D5069BA04A6C
:1013E00047F48078934207F04007A0F1300009DC11
:1013F0000A23069A03FB02030693002FDAD00BF1AF
:10140000FF3BD7E708F0B2FADDE9082305F022F93F
:1014100002460B46DDE90A0105F00EFB0022CDE98C
:101420000A01DDE908018F4B05F092F9CDE90801C9
:10143000002FBFD10BF1010BBCE7204604F09AFE50
:10144000C2E720F02003452B7FF44AAEFB057FF571
:1014500047AE636827F4C077013B002B63601CDB59
:1014600023685A1C226018782B281CD02D2818D0ED
:1014700001354FF000080A22784BA944A9EB050179
:10148000002904DD191891F8801089061CD43B0648
:101490004CBFABEB080BC34422E6204604F06AFEC7
:1014A000E2E747F0800763680235013B002B636089
:1014B00006DB23685A1C2260187809F1FF39D8E747
:1014C000204604F057FEF8E76168303801390029FA
:1014D00002FB080847F4807705F10105616004DB31
:1014E0002168481C20600878C8E7204604F042FEC6
:1014F0000A225A4BC2E706D000220023CDE9082376
:101500000022594B15E64FF000084FF00009DDE9C5
:101510000C0142464B4605F08FFADDE90A2305F03F
:101520008BFA13AA08F088F8139BDDF840B08046C8
:101530009B44BBF5806F8946CDF84CB024DD00227A
:10154000B9054CBF494B4A4BCDE902232222494BF6
:101550001A60FB057FF54CAD07F00108BF0735D5D4
:10156000B8F1000F07D1119B1A1D1B681192DDE91C
:101570000212C3E90012002DFFF633ADF30740F16C
:101580002E81049B2B4421E56FF47F739B450CDA7D
:101590000022002308F0F2F938B92222354B1A60F4
:1015A00000220023CDE90223D3E7BB055A4640467B
:1015B000494606D504F09AFE01F1004302900393D8
:1015C000C7E704F093FECDE90201C2E714AADDE902
:1015D000020108F031F8149B7E33002B149313DCC6
:1015E000DDE902010022002308F0C8F9F0B9222247
:1015F0000020204B1A60B8F1000FBCD1119B1A1DBE
:101600001B6811921860B6E7FE2B0FDDDDE90201C1
:101610000022002308F04AFA174A184B222100281A
:1016200008BF1346134A18681160E4E7DDE90201B8
:1016300005F08EFADFE70023CDF80080A0E6119BCD
:10164000700753F8042B1193049B4CBF1380136055
:10165000A7E40823CDF8008092E600BFE79D0000D4
:101660009F86010000002440000014400000F0FFAD
:101670000000F07FA00700200000002004000020F0
:101680001023CDF8008026F006027BE64FF0FF35F0
:1016900063680135013B002B63602ADB23685A1C19
:1016A0002260187809EB000393F8807017F00107A7
:1016B000EED1411C3FF497AC16F0010B08BF119B13
:1016C000A84402BF1A1D1F681192454507D0421C4D
:1016D00005D009EB000393F88030DB070DD52146D8
:1016E00007F070FEBBF1000F7FF445AF87F800B044
:1016F00041E7204604F03EFDD4E7BBF1000F01D1E5
:1017000007F8010B63680135013B002B636004DBC4
:1017100023685A1C22601878D7E7204604F02AFD77
:10172000D3E70A233246CDF800802BE61023CDF80C
:10173000008025E600229AF8003001255E2B14BFB8
:1017400000210121CDE91422CDE91622CDE918228C
:10175000CDE91A220ABF9AF801300AF1010A0AF10A
:10176000020A002B3FF444AC5A111CA800EB820281
:1017700052F8200C03F01F0305FA03F3034342F869
:10178000203C1AF8013B5D2BEBD161BB16F0010642
:1017900033D000276368013B002B636032DB236892
:1017A0005A1C226018780025A84511D0411C0FD082
:1017B00003460028B8BF00F11F031CAA5B1102EB0F
:1017C000830353F8203C00F01F021341DA0720D4B2
:1017D000214607F0F7FD002E7FF4D3AE3E70059B47
:1017E00001330593CDE6002314AA11680133C943E0
:1017F000082B42F8041BF8D1C8E7119B1A1D1F687B
:101800001192C7E7204604F0B5FC451CCBD1FFF789
:10181000EABB0EB907F8010B63680135013B002BE9
:10182000636004DB23685A1C22601878BCE72046FA
:1018300004F0A0FCB8E700BF2DE9F8430022002324
:1018400004460D4608F008F978B10022002320462E
:10185000294608F0ABF820B121220024364B374D41
:101860001A6020462946BDE8F88340F2FE33C5F3EE
:101870000A5763F31E55204629A3D3E900232946BE
:1018800004F0E8FE28A3D3E9002305F0D5F880464C
:10189000894602460B462046294604F059FF424637
:1018A0004B4605F0C9F80022254B04F0D3FE8046D4
:1018B000894602460B462046294604F049FF424627
:1018C0004B4605F0B9F800221D4B04F0C3FE8046DC
:1018D000894602460B462046294604F039FF424617
:1018E0004B4605F0A9F80022154B04F0B3FEA7F211
:1018F000FE36F20704460D4609D50DA3D3E90023B1
:1019000004F0A8FE6FF47F7304460D46FE18C5F37D
:101910000A5306EBD67603EB660363F31E55A0E786
:1019200018096D3997E2E23FF7CC920035B5DA3FFE
:10193000CD3B7F669EA0E63FA00700200000F0FFA1
:101940000000E03FFFFFFFFF2DE9F0471446DDE90F
:1019500008761D465CA3D3E90023804689462046CD
:10196000294608F0A3F840B121220024724B734DA0
:101970001A6020462946BDE8F087204654A3D3E9E3
:101980000023294605F058F853A3D3E9002304F0B7
:10199000DFFE07F0A7FF824607F0E8FF1AF0010F0D
:1019A00004460D4618BF7F422EB10022644B04F05E
:1019B00069FF04460D464AA3D3E900232046294681
:1019C00004F048FE02460B464046494604F05AFFE2
:1019D00045A3D3E90023804689462046294604F0E2
:1019E00039FE02460B464046494605F025F80446B6
:1019F0000D4607F0A5FB3EA3D3E9002308F056F8F7
:101A0000002857D022462B462046294604F022FEC5
:101A100039A3D3E900238046894604F01BFE38A38E
:101A2000D3E9002304F02EFF42464B4604F012FE99
:101A300035A3D3E9002304F0FFFF42464B4604F0F0
:101A400009FE33A3D3E9002304F01CFF42464B46B2
:101A500004F000FE30A3D3E9002304F0EDFF42467A
:101A60004B4604F0F7FD2EA3D3E9002304F00AFF50
:101A700042464B4604F0EEFD2BA3D3E9002304F0CD
:101A8000DBFF42464B4604F0E5FD29A3D3E90023E2
:101A900004F0F8FE42464B4604F0DCFD22462B469D
:101AA00004F0D8FD02460B462046294604F0C4FF48
:101AB00004460D46002FBFBF224605F100431446E1
:101AC0001D4656E7AFF300800000000065CDCD4114
:101AD000182D4454FB21F93F182D4454FB21094093
:101AE00000000000002209409EE59E4BEFAEE23E62
:101AF000BBBDD7D9DF7CDB3D95DF9369FF80E83C38
:101B00009C4908DC20E46A3D30D46A683C12E63D1A
:101B1000ABC05D4B45E65A3E63F024A5E31DC73ECE
:101B20001A3E011AA0012A3FB01011111111813F74
:101B3000555555555555C53FA00700200000F0FFED
:101B40000000E03FFFFFFFFF02460B462DE9F34791
:101B5000CDE9002307F0F4FA00227D4B04460D4640
:101B600007F04FFF002800F0C18022462B460020DE
:101B7000774904F0EDFD4FF0020A04460D465CA3E0
:101B8000D3E900232046294607F03BFF28B35AA398
:101B9000D3E900232046294604F05CFD00226D4B6A
:101BA00004F070FE00226B4B04F06CFE22462B46C4
:101BB00004F042FF52A3D3E9002306460F46204615
:101BC000294604F039FF02460B463046394604F0F8
:101BD000BFFD04460D460AF1010A2046294607F0DA
:101BE000AFFA49A3D3E9002307F00BFF00285DD02B
:101BF00022462B462046294604F02CFD44A3D3E977
:101C0000002306460F4604F025FD43A3D3E9002335
:101C100004F038FE32463B4604F01CFD40A3D3E9F5
:101C2000002304F02FFE32463B4604F013FD3EA392
:101C3000D3E9002304F026FE32463B4604F00AFDB9
:101C40003BA3D3E90023804689463046394604F059
:101C5000F3FE32463B4604F0FDFC37A3D3E90023F4
:101C600004F0EAFE32463B4604F0F4FC34A3D3E928
:101C7000002304F0E1FE32463B4604F0EBFC32A3C5
:101C8000D3E9002304F0D8FE02460B4640464946FD
:101C900004F05EFD22462B4604F0DCFC02460B46B7
:101CA0002046294604F0C8FE04460D46BAF1010F4D
:101CB00002DD05F100431D46274B204603EBCA0316
:101CC000D3E90023294604F0B7FE002204460D465E
:101CD000DDE90001002307F069FE10B105F10043C2
:101CE0001D462046294602B0BDE8F087824646E7F9
:101CF00056CD9E5E1426D13F5599B0D0F56CE73F86
:101D0000AA4C58E87AB6FB3FBBBDD7D9DF7CDB3D98
:101D1000BD87B1D97ACDEABF636A8D5C3FFD2040B3
:101D2000CBBCE2B97F813440E21C0651A6602B4057
:101D300010C74AE1490C2E40D7A30D320ACA4D40C4
:101D4000A56D0B04128A5540A995C4BC7C884440FB
:101D50000000F03F0000E03FB09C000090B599B05B
:101D600000AF744B0022C3F81021724B0022C3F85D
:101D70001421704B4FF080625A646E4B4FF08042DA
:101D80005A646C4B4FF080625A606A4B4FF080424D
:101D90005A60694B4FF40042C3F8A820674B684A69
:101DA0001A62664B1B69654A43F001031361634B7A
:101DB0001B69624A43F420231361604B1B695F4A2D
:101DC00043F01003136100BF5C4B5B6903F4806355
:101DD000002BF9D0594B1B69584A43F42023136157
:101DE000564B1B69554A43F00803136100BF534B20
:101DF000D3F8F03003F08073002BF8D04F4BD3F8BA
:101E0000F030A7F84E30B7F84E30184607F0C3FE52
:101E1000034619464FF0904004F07AFF03461946F6
:101E20004FF0904004F016FF0346FB653B1D442233
:101E30000021184607F082F91123BB6543E0BB6D12
:101E4000C3F11103012202FA03F3184607F0A3FEBF
:101E5000034619464FF07E5004F0FCFE0346194637
:101E6000F86D04F0F7FE0346184607F066FE0346D9
:101E7000BB64BB6D013B9B0060333B44BA6C43F8D1
:101E80005C2CB86C07F087FE0446BB6DC3F11103F0
:101E9000012202FA03F3184607F07DFE03461946B5
:101EA0004FF07E5004F0D6FE03461946204604F05B
:101EB0007BFE03461946F86D04F02AFF0346FB65D6
:101EC000BB6D013BBB65BB6D002BB8D100237B65AF
:101ED00011233B6510E03B6D013B9B0060333B44AD
:101EE00053F85C2C3B6D013B02FA03F37A6D13440B
:101EF0007B653B6D013B3B653B6D002BEBD10F4A96
:101F00007B6DC3F31003C2F8F8300C4BD3F8F830F4
:101F10000A4A43F08073C2F8F830084B8822C3F8AD
:101F20000021064B4FF08072C3F8A02000BF643739
:101F3000BD4690BD0010094000D00B4000F00A40A3
:101F40008000801080B584B000AF7860786805F0BC
:101F5000B6F90346FB73FB7B002B57D17B685B799B
:101F6000012B47D17B6800225A717B681B78032BB9
:101F700040D17B6834334FF400720021184607F0DB
:101F8000DDF87B6834332449184605F025F97B6871
:101F9000343303F5F2732149184605F01DF97B68C7
:101FA000343303F5F4727B681B691946104605F05B
:101FB00013F97B68343303F5F6727B68DB681946E6
:101FC000104605F009F97B68343303F5F9731449B9
:101FD000184605F001F97B6858787B6803F13401F5
:101FE0007B681B6A5A1C7B681A637B681A6B012327
:101FF00001F0C0FE7B685B7800220021184606F0E5
:102000006DFE0346002B01D00123FB73FB7B1846BA
:102010001037BD4680BD00BF5252614172724161AE
:10202000000055AA80B58AB000AF786039603B687F
:102030001B687B617B6820333B610B222021386960
:1020400007F07CF80023BB61BB69FB6108233B629E
:102050007A69FB6913441B782E2B36D1FB695A1C15
:10206000FA617A6913441B7887F8273097F827308C
:102070002E2B0BD1FB69022B08D8BB695A1CBA6105
:102080003A69134497F827201A70E7E797F8273042
:102090002F2B09D097F827305C2B05D097F82730E5
:1020A000202B01D90623BCE07A69FB691A443B68FE
:1020B0001A6097F82730202B01D8242200E0202234
:1020C0003B690B331A700023ABE0FB695A1CFA61C1
:1020D0007A6913441B7887F8273097F82730202B2C
:1020E0007CD997F827302F2B07D097F827305C2B17
:1020F00010D102E0FB690133FB617A69FB6913448B
:102100001B782F2BF6D07A69FB6913441B785C2B64
:10211000F0D064E097F827302E2B03D0BA693B6AE1
:102120009A420DD33B6A0B2B03D097F827302E2B06
:1021300001D0062375E00823BB610B233B624CE012
:1021400097F82730184605F072F80346002B24D084
:10215000FB695A1CFA617A6913441B78FB73FB7B99
:10216000184605F083F80346002B04D03B6A013B78
:10217000BA699A4201D3062353E0BB695A1CBA617B
:102180003A69134497F827201A70BB695A1CBA6140
:102190003A691344FA7B1A7097E797F82730194683
:1021A000224807F08EF80346002B01D0062338E0C2
:1021B00097F82730602B08D997F827307A2B04D866
:1021C00097F82730203B87F82730BB695A1CBA6143
:1021D0003A69134497F827201A7076E700BF7A69A6
:1021E000FB691A443B681A60BB69002B01D10623C6
:1021F00017E03B691B78E52B02D13B6905221A7079
:1022000097F82730202B05D97A69FB6913441B788E
:10221000202B01D8042200E000223B690B331A7006
:10222000002318462837BD4680BD00BFD09C000063
:1022300080B487B000AF78607B681B68FB60FB6888
:102240007B61FB68002B02D14FF0FF332DE07B69EF
:102250005A1C7A611B78FB72FB7A202B02D9FB7A1D
:102260003A2BF4D1FB7A3A2B1DD101233B61FB6859
:102270001B782F2B0CD9FB681B78392B08D8FB68EF
:1022800002337A699A4203D1FB681B78303B3B6189
:102290003B69002B02DD4FF0FF3306E07B687A6973
:1022A0001A603B6901E0034B1B7818461C37BD469A
:1022B00080BC70476208002080B584B000AF7860B1
:1022C00039607B6800221A717B684FF0FF321A6315
:1022D0003968786805F02FF80346002B01D00423F5
:1022E00088E07B68343303F5FF73184604F020FF61
:1022F0000346FB817B6893F834307B737B7BEB2B4D
:1023000005D07B7BE92B02D07B7BE82B6AD1FB8954
:102310004AF6552293420CD17B683433523308225B
:102320003649184606F052FF0346002B01D1002320
:1023300060E07B6834330B33184604F0F9FE034643
:102340007B817B6893F841307B737A897B89013B81
:102350001340002B46D17B89B3F5007F42D37B89A4
:10236000B3F5007F3ED87B7B002B3BD07A7B7B7B19
:10237000013B1340002B35D17B6834330E331846B4
:1023800004F0D6FE0346002B2CD07B6893F8443033
:10239000013B012B26D87B6834331133184604F0F7
:1023A000C7FE0346002B1DD07B6834331333184619
:1023B00004F0BEFE03467F2B09D87B6834332033FC
:1023C000184604F0CDFE0346B3F5803F0AD37B6880
:1023D00034331633184604F0ABFE0346002B01D00D
:1023E000002307E0FB894AF65522934201D10223DC
:1023F00000E0032318461037BD4680BDE09C000076
:1024000080B590B000AFF860B9601346FB71BB684F
:1024100000221A60F868FFF70BFFF862FB6A002BD6
:1024200001DA0B23DDE19D4AFB6A52F82330BB62DF
:10243000BB6A002B01D10C23D3E1BB68BA6A1A60D6
:10244000FB7923F00103FB71BB6A1B78002B1AD0C8
:10245000BB6A5B78184601F011FB034687F827300A
:1024600097F8273003F00103002B0CD1FB79002BE8
:1024700007D097F8273003F00403002B01D00A237C
:10248000AFE10023ADE1BB6A00221A70BB6A5B7842
:10249000184601F007FB034687F8273097F82730E6
:1024A00003F00103002B01D003239AE1FB79002BF9
:1024B00007D097F8273003F00403002B01D00A233C
:1024C0008FE10021B86A05F0BBFD38633B6B042B3C
:1024D00001D1012385E13B6B012B01D90D2380E163
:1024E000BB6A1B6B3B62BB6A34330B33184604F088
:1024F0001FFE0346B3F5007F01D00D2371E1BB6AD7
:1025000034331633184604F013FE0346BB63BB6B2B
:10251000002B06D1BB6A34332433184604F020FE66
:10252000B863BB6ABA6BDA61BB6A93F84420BB6AD2
:10253000DA70BB6ADB78012B05D0BB6ADB78022B33
:1025400001D00D234DE1BB6ADB781A46BB6B02FB61
:1025500003F3BB63BB6A93F841301A46BB6A5A81E6
:10256000BB6A5B89002B08D0BB6A5B891A46BB6AD1
:102570005B89013B1340002B01D00D2331E1BB6A85
:1025800034331133184604F0D3FD03461A46BB6AB0
:102590001A81BB6A1B8903F00F039BB2002B01D089
:1025A0000D231EE1BB6A34331333184604F0C0FD1B
:1025B0000346FB63FB6B002B06D1BB6A343320332D
:1025C000184604F0CDFDF863BB6A34330E33184669
:1025D00004F0AEFD0346FB83FB8B002B01D10D23E2
:1025E000FFE0FA8BBB6B1344BA6A1289120992B2EC
:1025F0001344BB61FA6BBB699A4201D20D23F0E030
:10260000FA6BBB69D31ABA6A5289B3FBF2F37B61E6
:102610007B69002B01D10D23E3E000233B637B6941
:102620001F4A934201D803233B637B694FF6F5723F
:10263000934201D802233B637B6940F6F5729342D3
:1026400001D801233B633B6B002B01D10D23C8E074
:102650007B699A1CBB6A9A61BB6A3A6A1A62FA8BF6
:102660003B6A1A44BB6A5A623A6ABB691A44BB6A3B
:10267000DA623B6B032B23D1BB6A34332A3318460F
:1026800004F056FD0346002B01D00D23A9E0BB6AE0
:102690001B89002B06D00D23A3E000BF0C000020F7
:1026A000F5FFFF0FBB6A34332C33184604F058FD96
:1026B0000246BB6A9A62BB6A9B699B007B631EE011
:1026C000BB6A1B89002B01D10D238AE0BB6A5A6AC1
:1026D000BB6B1A44BB6A9A623B6B022B03D1BB6A89
:1026E0009B695B000AE0BB6A9A6913465B0013446E
:1026F0005A08BB6A9B6903F0010313447B63BB6AFE
:10270000DA697B6B03F2FF135B0A9A4201D20D2355
:1027100067E0BB6A4FF0FF321A61BB6A1A69BB6A95
:10272000DA60BB6A80225A713B6B032B47D1BB6ACC
:1027300034333033184604F0FBFC0346012B3ED102
:102740003B6A01331946B86A04F0F5FD0346002BD5
:1027500035D1BB6A00225A71BB6A3433184604F083
:10276000FFFC0346214A934229D1BB6A343303F567
:10277000F273184604F0F4FC03461D4A93421ED13E
:10278000BB6A343303F5F973184604F0E9FC0346D9
:10279000184A934213D1BB6A343303F5F4731846D5
:1027A00004F0DEFC0246BB6A1A61BB6A343303F5EF
:1027B000F673184604F0D4FC0246BB6ADA603B6B41
:1027C000DAB2BB6A1A700C4B1B8801339AB20A4BFF
:1027D0001A80094B1A88BB6ADA80BB6A00225A61E8
:1027E000002318464037BD4680BD00BF52526141AC
:1027F00072724161000055AA6008002080B588B05F
:1028000000AFF860B9601346FB71BB683B6107F12C
:1028100010031846FFF70CFDF861FB69002B01DA85
:102820000B232EE0194AFB6952F82330BB61BB69C8
:10283000002B07D0154AFB69002142F82310BB6921
:1028400000221A70FB68002B0BD0FB68FA69D2B229
:102850005A70FB6800221A70FA680C49FB6941F84B
:102860002320FB79002B01D100230AE007F10C01A2
:1028700007F1080300221846FFF7C2FD0346FB7567
:10288000FB7D18462037BD4680BD00BF0C000020F0
:1028900080B598B000AFF860B9601346FB71FB6873
:1028A000002B01D109235DE1FB7903F03F03FB71AC
:1028B000FA7907F1140107F108031846FFF7A0FDA4
:1028C000034687F85F3097F85F30002B40F0418176
:1028D0007B69BB61BA6807F118031146184605F019
:1028E00021FB034687F85F3097F85F30002B07D154
:1028F00097F843305BB2002B02DA062387F85F308B
:10290000FB7903F01C03002B77D097F85F30002B86
:1029100010D097F85F30042B07D107F11803184641
:1029200005F0B0FA034687F85F30FB7943F00803FF
:10293000FB7110E0BB7F03F01103002B03D00723D2
:1029400087F85F3007E0FB7903F00403002B02D027
:10295000082387F85F3097F85F30002B67D1FB7949
:1029600003F00803002B62D0804B3B657B6B0E337A
:10297000396D184604F030FC7B6B1633396D184600
:1029800004F02AFC7B697A6B1146184605F089F938
:10299000F8647B6B0B3320221A707B69796B002201
:1029A000184605F09DF97B6B1C330021184604F096
:1029B00013FC7B6901221A71FB6C002B37D07B69F9
:1029C0001B6BBB6407F118030022F96C184604F076
:1029D0008EFE034687F85F3097F85F30002B26D1D4
:1029E0007B69B96C184604F0A6FC034687F85F3093
:1029F0007B69FA6C013ADA6019E097F85F30002BD6
:102A000015D1BB7F03F01003002B03D0042387F8FC
:102A10005F300CE0FB7903F00203002B07D0BB7F93
:102A200003F00103002B02D0072387F85F3097F8EB
:102A30005F30002B0FD1FB7903F00803002B03D08C
:102A4000FB7943F04003FB717B691A6BFB681A62E8
:102A50007A6BFB685A6297F85F30002B79D17B69FB
:102A60007A6B1146184605F01CF90246FB689A601D
:102A70007B6B1C33184604F073FB0246FB68DA607C
:102A80007A69FB681A607B69DA88FB689A80FB6860
:102A9000FA791A74FB6800225A74FB680022DA6122
:102AA000FB6800225A61FB7903F02003002B50D011
:102AB000FB68DB68002B4CD0FB68DA68FB685A6166
:102AC0007B695B895B027B64FB689B68BB65FB6819
:102AD000DB687B6516E0FB68B96D184604F076FC90
:102AE000B865BB6D012B02D8022387F85F30BB6D40
:102AF000B3F1FF3F02D1012387F85F307A6D7B6C21
:102B0000D31A7B6597F85F30002B03D17A6D7B6C0D
:102B10009A42E0D8FB68BA6D9A6197F85F30002B53
:102B200017D17B6DC3F30803002B12D07B69B96DFD
:102B3000184604F02DFCB864BB6C002B03D10223B3
:102B400087F85F3005E07B6D5A0ABB6C1A44FB685E
:102B5000DA6197F85F30002B02D0FB6800221A6020
:102B600097F85F3018466037BD4680BD0000615958
:102B700080B586B000AF78607B6807F10802114627
:102B8000184605F0BCFA0346FB75FB7D002B4CD1C3
:102B90007B681B7C03F04003002B46D0254B3B6138
:102BA000BA687B681B6A1946104604F0C4FB0346EA
:102BB000FB75FB7D002B38D17B685B6AFB60FB6893
:102BC0000B331A78FB680B3342F02002D2B21A7032
:102BD0007B6818687B689B681A46F96805F080F87E
:102BE000FB6803F11C027B68DB681946104604F0A1
:102BF000F3FAFB6816333969184604F0EDFAFB68FE
:102C000012330021184604F0CDFABB6801221A7174
:102C1000BB681846FFF796F90346FB757B681B7C7B
:102C200023F04003DAB27B681A74FB7D184618372C
:102C3000BD4680BD00006159B0B58EB000AFF860F0
:102C4000C7E9002300237B6300233B63002387F84D
:102C50002F300023BB622E2387F82730D7E90023CB
:102C6000D7E9000106F08AFE0346002B02D18F4B04
:102C7000BB6247E1BB6C002B01DA0623BB644FF05B
:102C800000024FF00003D7E9000106F08FFE034673
:102C9000002B0FD0D7E900234FF000004FF00001C8
:102CA00003F0F0FD02460B46C7E900232D2387F809
:102CB0002F3002E02B2387F82F30D7E90023D7E904
:102CC000000106F05BFE0346002B1BD0D7E9002372
:102CD000D7E9000103F0D6FD02460B4614461D4617
:102CE000D7E90023D7E9000103F0CCFD02460B46EB
:102CF0002046294606F042FE0346002B02D16C4BCB
:102D0000BB6271E097F84C30662B26D1BB6C5B42FE
:102D10001846FDF71DFB4FF000024FF0804303F013
:102D200017FD02460B46D7E9000103F085FE024677
:102D30000B46C7E90023D7E90001FDF78DFA386398
:102D40003B6B002B01DA00233B633A6BBB6C1344F3
:102D50001C2B49DD574BBB6246E04FF000024FF0A1
:102D60000003D7E9000106F009FE0346002B3BD122
:102D7000D7E90001FDF770FA0246BB6CD31A18467A
:102D8000FDF7E6FA4FF000024FF0804303F0E0FC5D
:102D900002460B46D7E9000103F04EFE02460B4601
:102DA000C7E90023D7E90001FDF756FA78637B6B8A
:102DB000632B02DCBB6C182B02DD3E4BBB6213E0C5
:102DC0007B6B13F1630F02DA6FF062037B63786B46
:102DD000FDF7BEFA02460B46D7E9000103F0B8FC46
:102DE00002460B46C7E90023BB6A002B40F08A80ED
:102DF00097F82F302D2B05D1FB685A1CFA6097F8F5
:102E00002F201A703B6BB3F1FF3F05D1FB685A1CB2
:102E1000FA6097F827201A70386BFDF799FAC7E91E
:102E20000601D7E90623D7E9000103F091FC024629
:102E30000B461046194606F055FD03467B6178693E
:102E400006F094FDD7E9062303F004FC02460B4686
:102E5000D7E9000103F016FD02460B46C7E900233F
:102E60007B69DAB2FB68591CF9603032D2B21A7051
:102E70003B6B013B3B63BB6C5B423A6B9A42C1DAF2
:102E800097F84C30662B3DD0FB685A1CFA6097F8D7
:102E90004C201A707B6B002B0EDA7B6B5B427B63E2
:102EA000FB685A1CFA602D221A700AE0EC9C0000A4
:102EB000F09C0000F49C0000FB685A1CFA602B2276
:102EC0001A707B6B1F4A82FB03129210DB17D31A16
:102ED000DAB2FB68591CF9603032D2B21A707A6BE0
:102EE000184B83FB02139910D317C91A0B469B008A
:102EF0000B445B00D11ACAB2FB68591CF96030322E
:102F0000D2B21A70BB6A002B15D097F82F30002B65
:102F100005D0FB685A1CFA6097F82F201A70BA6A1D
:102F2000531CBB62FB68591CF96012781A70BB6AAB
:102F30001B78002BF3D1FB6800221A7000BF3837D2
:102F4000BD46B0BD676666660EB42DE9F04FB0B001
:102F500002AF7861002387F83F3007F140037969B9
:102F6000184605F09AFD07F1E003C7F88C30D7F852
:102F7000DC305A1CC7F8DC201B7887F8933097F8B0
:102F80009330002B00F0518397F89330252B08D015
:102F900097F8932007F140031146184605F020FDED
:102FA00042E30023C7F8AC30D7F8AC30C7F8A830FC
:102FB000202387F892304FF0FF33C7F8A030D7F8BE
:102FC000DC305A1CC7F8DC201B7887F8933097F860
:102FD0009330302B0BD1302387F89230D7F8DC3088
:102FE0005A1CC7F8DC201B7887F893300EE097F85E
:102FF00093302D2B0AD10223C7F8A830D7F8DC3044
:103000005A1CC7F8DC201B7887F8933097F8933068
:103010002A2B25D1D7F88C301A1DC7F88C201B68B5
:10302000C7F8AC30D7F8DC305A1CC7F8DC201B7866
:1030300087F893301CE0D7F8AC2013469B0013446C
:103040005B001A4697F893301344303BC7F8AC3016
:10305000D7F8DC305A1CC7F8DC201B7887F893308F
:1030600097F893302F2B03D997F89330392BE2D967
:1030700097F893302E2B3DD1D7F8DC305A1CC7F887
:10308000DC201B7887F8933097F893302A2B10D1E7
:10309000D7F88C301A1DC7F88C201B68C7F8A030F1
:1030A000D7F8DC305A1CC7F8DC201B7887F893303F
:1030B00020E00023C7F8A03014E0D7F8A020134682
:1030C0009B0013445B001A4697F893301344303B3F
:1030D000C7F8A030D7F8DC305A1CC7F8DC201B78C2
:1030E00087F8933097F893302F2B03D997F89330C4
:1030F000392BE2D997F893306C2B1FD1D7F8A83031
:1031000043F00403C7F8A830D7F8DC305A1CC7F8DE
:10311000DC201B7887F8933097F893306C2B0DD117
:10312000D7F8A83043F00803C7F8A830D7F8DC3048
:103130005A1CC7F8DC201B7887F8933097F8933037
:10314000002B00F0748297F89330453B332B00F24C
:10315000638101A252F823F04B33000019340000C0
:10316000193400001934000019340000193400002B
:10317000193400001934000019340000193400001B
:10318000193400001934000019340000193400000B
:1031900019340000193400001934000019340000FB
:1031A00019340000413200001934000019340000C5
:1031B00019340000193400001934000019340000DB
:1031C00019340000193400001934000029320000BD
:1031D00049320000393200004B3300004B3300000D
:1031E00019340000193400001934000019340000AB
:1031F000193400001934000019340000193400009B
:103200003132000019340000193400001934000074
:103210006532000019340000393200001934000012
:1032200019340000413200000223C7F8A430FCE04A
:103230000823C7F8A430F8E00A23C7F8A430F4E064
:103240001023C7F8A430F0E0D7F88C301A1DC7F867
:103250008C201B68DAB207F140031146184605F0CE
:10326000BFFBE1E1D7F88C301A1DC7F88C201B6832
:10327000C7F89430D7F89430002B03D107F13F03FF
:10328000C7F894300023C7F8B03004E0D7F8B03066
:103290000133C7F8B030D7F89420D7F8B0301344D2
:1032A0001B78002BF2D1D7F8A030002B17DBD7F812
:1032B000A030D7F8B0209A4211D9D7F8A030C7F87B
:1032C000B0300CE097F8922007F140031146184601
:1032D00005F086FBD7F8B0300133C7F8B030D7F827
:1032E000A83003F00203002B12D1D7F8B020D7F892
:1032F000AC309A42E6D30BE0D7F894305A1CC7F8AA
:1033000094201A7807F140031146184605F068FB2F
:10331000D7F894301B78002B0DD0D7F8A0305A1E68
:10332000C7F8A020002BE7D105E007F140032021DA
:10333000184605F055FBD7F8B0305A1CC7F8B02036
:10334000D7F8AC209A42F0D86EE1D7F88C3007332A
:1033500023F0070303F10802C7F88C20D3E900012A
:1033600007F11C0497F893300193D7F8A03000932D
:1033700002460B462046FFF75FFC07F11C03184688
:1033800005F0ABFFC7F8B0000CE097F8922007F10A
:1033900040031146184605F023FBD7F8B03001333F
:1033A000C7F8B030D7F8A83003F00203002B05D1DE
:1033B000D7F8B020D7F8AC309A42E6D30023C7F84C
:1033C000B43010E0D7F8B4305A1CC7F8B420A83392
:1033D00007F11002134413F89C2C07F14003114627
:1033E000184605F0FDFA07F11C02D7F8B430134473
:1033F0001B78002BE6D105E007F140032021184699
:1034000005F0EEFAD7F8B0305A1CC7F8B020D7F85C
:10341000AC209A42F0D807E197F8932007F14003D7
:103420001146184605F0DCFAFEE0D7F8A83003F0A4
:103430000803002B0DD0D7F88C30073323F0070397
:1034400003F10802C7F88C20D3E90023C7E926233B
:1034500038E0D7F8A83003F00403002B19D097F810
:103460009330642B09D1D7F88C301A1DC7F88C2003
:103470001B68DA179A46934608E0D7F88C301A1D75
:10348000C7F88C201B6800229A469346C7E926ABF2
:1034900018E097F89330642B09D1D7F88C301A1DB7
:1034A000C7F88C201B68DA171D46164608E0D7F8C7
:1034B0008C301A1DC7F88C201B6800221D4616464A
:1034C000C7E9265697F89330642B12D1D7E9262303
:1034D000002B0EDAD7E926230021D2F1000861EB98
:1034E0000309C7E92689D7F8A83043F00103C7F8D4
:1034F000A8300023C7F8B430D7F8A4300022BB604E
:10350000FA60D7E92601D7E9022306F030F9D3B2F1
:10351000303387F89130D7F8A43000223B607A60CE
:10352000D7E90023D7E9260106F021F902460B4628
:10353000C7E9262397F89130392B0BD997F89330A8
:10354000782B01D1272200E0072297F8913013440D
:1035500087F89130D7F8B4305A1CC7F8B420A83394
:1035600007F11002134497F8912003F89C2CD7E937
:103570002623134303D0D7F8B4301F2BBCD9D7F878
:10358000A83003F00103002B0BD0D7F8B4305A1C3D
:10359000C7F8B420A83307F1100213442D2203F812
:1035A0009C2CD7F8B430C7F8B0300CE097F89220D4
:1035B00007F140031146184605F012FAD7F8B0306B
:1035C0000133C7F8B030D7F8A83003F00203002B5E
:1035D00005D1D7F8B020D7F8AC309A42E6D3D7F867
:1035E000B430013BC7F8B43007F11C02D7F8B4304F
:1035F00013441A7807F140031146184605F0F0F914
:10360000D7F8B430002BEAD105E007F140032021C0
:10361000184605F0E5F9D7F8B0305A1CC7F8B020C5
:10362000D7F8AC209A42F0D8A1E400BF00E000BF78
:1036300007F14003184605F00BFA03461846B83761
:10364000BD46BDE8F04F03B0704700BF80B485B001
:1036500000AF786039607B685A1C7A601B78FB7316
:1036600097F90F30002B06DA7B4B1B6C7A4A43F03C
:103670000403136405E0784B9B6C774A43F0040322
:103680009364754B1B6C744A43F002031364724BD2
:103690009B6C714A43F002039364FB7B03F040038D
:1036A000002B06D06C4B1B6C6B4A43F00403136475
:1036B00005E0694B9B6C684A43F004039364664BD6
:1036C0001B6C654A43F002031364634B9B6C624AB4
:1036D00043F002039364FB7B03F02003002B06D02E
:1036E0005D4B1B6C5C4A43F00403136405E05A4BCA
:1036F0009B6C594A43F004039364574B1B6C564A26
:1037000043F002031364544B9B6C534A43F002038F
:103710009364FB7B03F01003002B06D04E4B1B6C15
:103720004D4A43F00403136405E04B4B9B6C4A4A3B
:1037300043F004039364484B1B6C474A43F0020375
:103740001364454B9B6C444A43F002039364FB7B38
:1037500003F00803002B06D03F4B1B6C3E4A43F09E
:103760000403136405E03C4B9B6C3B4A43F00403A9
:103770009364394B1B6C384A43F002031364364B95
:103780009B6C354A43F002039364FB7B03F0040314
:10379000002B06D0304B1B6C2F4A43F004031364FC
:1037A00005E02D4B9B6C2C4A43F0040393642A4B99
:1037B0001B6C294A43F002031364274B9B6C264A77
:1037C00043F002039364FB7B03F00203002B06D05B
:1037D000214B1B6C204A43F00403136405E01E4B8D
:1037E0009B6C1D4A43F0040393641B4B1B6C1A4AE9
:1037F00043F002031364184B9B6C174A43F0020317
:103800009364FB7B03F00103002B06D0124B1B6C6F
:10381000114A43F00403136405E00F4B9B6C0E4AFE
:1038200043F0040393640C4B1B6C0B4A43F00203FC
:103830001364094B9B6C084A43F0020393643B6892
:10384000013B3B603B68002B7FF405AF00BF00BF2E
:103850001437BD4680BC70470030104080B485B03E
:1038600000AF786039606B4B1B6C6A4A43F004030D
:1038700013640023FB73674B1B6D03F00103002BE4
:1038800002D0FB7B0133FB73624B1B6C614A43F03C
:10389000020313645F4B9B6C5E4A43F00203936424
:1038A000FB7B5B00FB735B4B1B6D03F00103002B89
:1038B00002D0FB7B0133FB73564B1B6C554A43F024
:1038C00002031364534B9B6C524A43F0020393640C
:1038D000FB7B5B00FB734F4B1B6D03F00103002B65
:1038E00002D0FB7B0133FB734A4B1B6C494A43F00C
:1038F00002031364474B9B6C464A43F002039364F4
:10390000FB7B5B00FB73434B1B6D03F00103002B40
:1039100002D0FB7B0133FB733E4B1B6C3D4A43F0F3
:10392000020313643B4B9B6C3A4A43F002039364DB
:10393000FB7B5B00FB73374B1B6D03F00103002B1C
:1039400002D0FB7B0133FB73324B1B6C314A43F0DB
:10395000020313642F4B9B6C2E4A43F002039364C3
:10396000FB7B5B00FB732B4B1B6D03F00103002BF8
:1039700002D0FB7B0133FB73264B1B6C254A43F0C3
:1039800002031364234B9B6C224A43F002039364AB
:10399000FB7B5B00FB731F4B1B6D03F00103002BD4
:1039A00002D0FB7B0133FB731A4B1B6C194A43F0AB
:1039B00002031364174B9B6C164A43F00203936493
:1039C000FB7B5B00FB73134B1B6D03F00103002BB0
:1039D00002D0FB7B0133FB730E4B1B6C0D4A43F093
:1039E000020313640B4B9B6C0A4A43F0020393647B
:1039F0007B685A1C7A60FA7B1A703B68013B3B601B
:103A00003B68002B7FF435AF00BF00BF1437BD46C5
:103A100080BC70470030104080B582B000AF074BCB
:103A20001B6C064A43F008031364FB1D0121184672
:103A3000FFF714FF00BF0837BD4680BD00301040BF
:103A400080B582B000AF0C4B9B6C0B4A43F008036F
:103A50009364FB1D01211846FFF700FF05F047F8AE
:103A60000346002B01D0012302E0FFF7D5FF00231E
:103A700018460837BD4680BD0030104080B483B082
:103A800000AF0346FB71FB79002B01D0012301E05D
:103A9000034B1B7818460C37BD4680BC704700BFEF
:103AA0000800002080B586B000AF0346FB71FB79AB
:103AB000002B01D00323F8E042F2107004F0FEFF67
:103AC0007C4B4FF080425A647A4B40225A65794BC6
:103AD0004FF080425A60774B40225A61764B4FF448
:103AE0000042C3F88C20754B1B6C744A43F00803EA
:103AF0001364724B5B6D714A43F0080353656F4B5F
:103B00001B6C6E4A43F0080313646B4B4FF4004286
:103B1000C3F88420694B9B6C684A43F002039364AA
:103B2000664B5B6D654A43F002035365634B9B6CC8
:103B3000624A43F0020393645F4B4FF40042C3F8C0
:103B400088205E4B1B6C5D4A43F0040313645B4B9F
:103B50005B6D5A4A43F004035365574B4FF41042D0
:103B6000C3F880200A23FB7508E007F10803012150
:103B70001846FFF773FEFB7D013BFB75FB7D002BB9
:103B8000F3D10023BB750021002005F03AF803466D
:103B9000012B7AD14FF4D571082005F032F8034695
:103BA000012B3DD107F1080304211846FFF756FE0B
:103BB000BB7A012B69D1FB7AAA2B66D14FF47A73B9
:103BC0003B610EE04FF08041A92005F01AF8034652
:103BD000002B0AD04FF47A7004F070FF3B69013B70
:103BE0003B613B69002BEDD100E000BF3B69002B3E
:103BF0004BD000213A2005F004F80346002B44D1B5
:103C000007F1080304211846FFF728FE3B7A03F06A
:103C10004003002B01D0182300E00823BB7534E0DB
:103C20000021A92004F0EDFF0346012B04D808234E
:103C3000BB75A9237B7503E00123BB7501237B754D
:103C40004FF47A733B610EE07B7D0021184604F04F
:103C5000D8FF0346002B0AD04FF47A7004F02EFFF1
:103C60003B69013B3B613B69002BEDD100E000BFAC
:103C70003B69002B07D04FF40071102004F0C1FF06
:103C80000346002B01D00023BB750D4ABB7D13708A
:103C9000BB7D002B0CBF01230023DBB2FB73094A61
:103CA000FB7B1370FFF7B8FEFB7B18461837BD4649
:103CB00080BD00BF0010094000D00B400030104014
:103CC000630800200800002080B586B000AFB9600E
:103CD0007A603B600346FB737B687B61FB7B184625
:103CE000FFF7CCFE034603F00103002B01D00323B2
:103CF0003AE01F4B1B7803F01003002B02D17B69C5
:103D00005B027B613B68012B01D9122300E0112388
:103D1000FB74FB7C7969184604F073FF0346002BA3
:103D20001AD14FF40071B86804F005FF0346002B68
:103D30000AD0BB6803F50073BB603B68013B3B6086
:103D40003B68002BEDD100E000BFFB7C122B03D1C0
:103D500000210C2004F055FFFFF75EFE3B68002BAE
:103D600014BF01230023DBB218461837BD4680BDBF
:103D70006308002080B586B000AFB9607A603B6010
:103D80000346FB737B687B61FB7B1846FFF776FE7F
:103D9000034603F00103002B01D0032351E02B4B1A
:103DA0001B7803F01003002B02D17B695B027B615F
:103DB0003B68012B10D17969182004F022FF0346DB
:103DC000002B36D1FE21B86804F0E6FE0346002B36
:103DD0002FD000233B602CE01C4B1B7803F00C031E
:103DE000002B03D03968972004F00BFF7969192064
:103DF00004F007FF0346002B1BD1FC21B86804F038
:103E0000CBFE0346002B0AD0BB6803F50073BB60F2
:103E10003B68013B3B603B68002BEED100E000BFFC
:103E2000FD21002004F0B8FE0346002B01D1012340
:103E30003B60FFF7F1FD3B68002B14BF012300231B
:103E4000DBB218461837BD4680BD00BF63080020AE
:103E500080B500AF00220F490F48FEF7CFFC0346A4
:103E60001A460E4B1A700D4B1B7819460C4801F080
:103E7000B1F90A4B1B78002B06D0084B1B7819466A
:103E8000084801F0A7F9FEE7074804F0F5FC00BF79
:103E900080BD00BF1C9D00001000002064080020B1
:103EA000F89C0000FC9C0000209D000080B500AF45
:103EB00032220F490F48FEF7EBFC03461A460E4B21
:103EC0001A700D4B1B78002B10D10A4BDB6819467A
:103ED000084804F0D3FB03461A46074B1A700548FE
:103EE00004F0ACFB03461A46034B1A7000BF80BDBA
:103EF0002C9D00004402002064080020F0B58BB027
:103F000006AF0446384680E80E002346FB73322293
:103F100023492448FEF7BCFC03461A46224B1A707C
:103F2000214B1B781946214801F054F91E4B1B7890
:103F3000002B30D11B4BDB6819461A4804F09EFB5E
:103F400003461A46184B1A70174B1B78002B1BD1CF
:103F50007B68184602F0AAFF04460D467B7A1E468F
:103F60003B68184602F0A2FF02460B46397A084623
:103F7000F97B05910490CDE90223009622462B4659
:103F80000B490848FEF7E0FF064804F057FB0346DC
:103F90001A46054B1A7000BF1437BD46F0BD00BF6E
:103FA0002C9D00004402002064080020F89C0000C2
:103FB000349D000080B584B000AF00F003FC012206
:103FC00024492548FEF764FC03461A46234B1A7021
:103FD000214BDB685B0A7B607B6801337B600023DD
:103FE0003B601E4B1B78002B30D10023FB6021E08F
:103FF0001B4B40F2FF121B49174804F0B5F8002391
:10400000BB600AE0174ABB6813441B781946164880
:1040100001F0E0F8BB680133BB60BA68104B1B6865
:104020009A42EFD30E4B1B68B3F5007FE0D0FB68DC
:104030000133FB60FA687B689A42D9DB0B4801F0D8
:10404000C9F800F0B1FB044804F0F8FA00BF1037DB
:10405000BD4680BD2C9D0000440200206408002065
:104060006C02002070020020489D00004C9D000062
:1040700080B500AF0B4B0C4A1A600A4B0B4A5A60D2
:10408000084B45221A72074B4E225A724FF41650B3
:1040900000F008FB4FF4165000F0C8F900BF1846B6
:1040A00080BD00BFF0040020D34DDC40A5AC4D42E4
:1040B00090B58DB002AF4BE000F054FB0346DBB28D
:1040C000FB71FB1D01221946264805F02DF9FB79ED
:1040D0001946254801F07EF8FB790A2B38D10622D3
:1040E0002249204805F034F90346002B2DD1204900
:1040F0001C4800F041F807F10803184600F012F9D7
:104100001C4B6C461A1D92E8030084E803001B68F0
:1041100007F1080207CA00F05DFC786207F114039A
:10412000184600F0FFF8134B6C461A1D92E8030086
:1041300084E803001B6807F1140207CA00F040FD81
:104140003862084B00221A7002E0064B00221A70F7
:1041500000F020FB0346002BAED100BF00BF2C3780
:10416000BD4690BD70040020489D0000509D000099
:10417000FC040020F004002080B58AB000AF786015
:1041800039607B68FB600023BB6141E0BB69023B97
:10419000052B34D801A252F823F000BFB54100002E
:1041A000CD410000D5410000ED410000FF4100007D
:1041B000F5410000786901F0C7FF02460B46104642
:1041C000194602F0C5FC03463B6218E07B691B7888
:1041D000FB7714E0786901F0B7FF02460B46104602
:1041E000194602F0B5FC03467B6208E07B691B7848
:1041F000BB7704E0786901F0B1FF386100BFBB69AB
:104200000133BB613B1D2049184604F0F2FD786183
:1042100007F10C031C49184604F0EBFD78617B693B
:10422000002BB3D14FF00001386A05F0B8FC03460B
:10423000002B00D024E04FF00001786A05F0AFFCBD
:104240000346002B00D01BE0FB7F002B18D0BB7F68
:10425000002B15D0BB7F1946786A00F017F802468C
:104260003B681A60FB7F1946386A00F00FF8024677
:104270003B685A603B68BA7F1A723B68FA7F5A7291
:1042800000BF2837BD4680BD589D0000B0B586B040
:1042900000AF78600B46FB702049786802F0DAFCCA
:1042A0000346184605F02FFC03463B613B69642238
:1042B00002FB03F3184605F066FC034619467868CE
:1042C00002F026FD0346FB60386905F04FFB04460B
:1042D0000D46F86802F0EAFD4FF00002104B02F0C4
:1042E00037FA02460B462046294602F0A5FB024655
:1042F0000B461046194602F02BFC03467B61FB7807
:10430000532B02D0FB78572B03D17B6983F00043FA
:104310007B617B6918461837BD46B0BD0000C842B6
:1043200000004E4080B483B000AF78607B68044AE0
:1043300007CA83E8070078680C37BD4680BC704721
:10434000FC04002080B483B000AF78607B68044A2E
:1043500007CA83E8070078680C37BD4680BC704701
:10436000F004002080B483B000AF0346FB7197F9DE
:104370000730002B0BDBFB7903F01F02064997F98E
:1043800007305B09012000FA02F241F8232000BF48
:104390000C37BD4680BC704700E100E080B483B0BC
:1043A00000AF0346FB7197F90730002B0CDBFB795C
:1043B00003F01F02074997F907305B09012000FA53
:1043C00002F2603341F8232000BF0C37BD4680BCA9
:1043D000704700BF00E100E080B483B000AF034647
:1043E0003960FB7197F90730002B0ADB3B68DAB2C2
:1043F0000C4997F907305201D2B20B4483F80023DD
:104400000AE03B68DAB20849FB7903F00F03043B8A
:104410005201D2B20B441A7600BF0C37BD4680BCA5
:10442000704700BF00E100E000ED00E080B582B021
:1044300000AF786080222649264804F048FD80229B
:104440002549264804F043FD254B0222C3F8E0200D
:10445000234B0022C3F8E420214B4FF400225A647E
:104460001F4B4FF000525A641D4B4FF400225A600C
:104470001B4B4FF000525A601A4B4FF41242C3F8D4
:104480008820184B4FF40242C3F88C207B681B0134
:10449000154AB2FBF3F3C3F30C03144A43F0706301
:1044A0001361124B9B69114A43F43013936103214A
:1044B0001F20FFF791FF1F20FFF770FF1F20FFF75E
:1044C00051FF62B600BF00BF0837BD4680BD00BFC8
:1044D0003805002008050020B80500202005002030
:1044E0000010094000C00B40006CDC0200F00940E5
:1044F00080B582B000AF786000BF7B68DBB2194640
:10450000094804F009FD034683F00103DBB2002BE8
:10451000F3D1064B9B69054A43F40003936100BF46
:104520000837BD4680BD00BF0805002000F00940E7
:1045300080B582B000AF0023FB7100BFFB1D1946A0
:10454000064804F01EFD034683F00103DBB2002B96
:10455000F4D1FB7918460837BD4680BD2005002000
:1045600080B582B000AF1F20FFF718FF184B5B69C2
:1045700003F40003002B11D0FB1D1946154804F06D
:1045800000FD0346002B03D0FA79114BDA6105E0F8
:104590000F4B9B690E4A23F4000393610C4B5B693C
:1045A00003F40013002B0FD0094BDB69DBB2FB7166
:1045B000FB791946084804F0AFFC034683F0010379
:1045C000DBB2002B00D0FEE700BF0837BD4680BD40
:1045D00000F00940080500202005002080B483B0C9
:1045E00000AF0346FB7197F90730002B0BDBFB791B
:1045F00003F01F02064997F907305B09012000FA12
:1046000002F241F8232000BF0C37BD4680BC704742
:1046100000E100E080B483B000AF0346FB7197F97E
:104620000730002B0CDBFB7903F01F02074997F9D9
:1046300007305B09012000FA02F2603341F82320C1
:1046400000BF0C37BD4680BC704700BF00E100E0F2
:1046500080B483B000AF03463960FB7197F907302F
:10466000002B0ADB3B68DAB20C4997F9073052019C
:10467000D2B20B4483F800230AE03B68DAB208495F
:10468000FB7903F00F03043B5201D2B20B441A76BC
:1046900000BF0C37BD4680BC704700BF00E100E0A2
:1046A00000ED00E080B582B000AF7860802225493F
:1046B000254804F00CFC80222449254804F007FC1E
:1046C000244B0222C3F8F020224B0022C3F8F4202E
:1046D000204B4FF400125A641E4B01225A651D4BA9
:1046E0004FF400125A601B4B01225A611A4B4FF4CF
:1046F0001242C3F8B820184B4FF40242C3F8BC2052
:104700007B681B01154AB2FBF3F3C3F30C03144A95
:1047100043F070631361124B9B69114A43F43013E9
:10472000936103212120FFF793FF2120FFF772FF00
:104730002120FFF753FF62B600BF00BF0837BD4618
:1047400080BD00BF6806002038060020E806002073
:10475000500600200010094000F00B40006CDC0205
:1047600000100A4080B582B000AF0023FB7100BF8B
:10477000FB1D1946064804F004FC034683F00103C0
:10478000DBB2002BF4D1FB7918460837BD4680BD5B
:104790005006002080B500AF024804F025FC034617
:1047A000184680BD5006002080B400AF044B9B69C2
:1047B000034A43F43013936100BFBD4680BC704789
:1047C00000100A4080B400AF044B9B69034A23F4F5
:1047D0003013936100BFBD4680BC704700100A4093
:1047E00080B582B000AF2120FFF714FF184B5B6942
:1047F00003F40003002B11D0FB1D1946154804F0EB
:10480000C0FB0346002B03D0FA79114BDA6105E0B7
:104810000F4B9B690E4A23F4000393610C4B5B69B9
:1048200003F40013002B0FD0094BDB69DBB2FB71E3
:10483000FB791946084804F06FFB034683F0010337
:10484000DBB2002B00D0FEE700BF0837BD4680BDBD
:1048500000100A40380600205006002080B483B0C3
:1048600000AF0346FB7197F90730002B0CDBFB7997
:1048700003F01F02074997F907305B09012000FA8E
:1048800002F2603341F8232000BF0C37BD4680BCE4
:10489000704700BF00E100E080B483B000AF084B78
:1048A000DB6D03F007037B607B68042B0CBF0123E7
:1048B0000023DBB218460C37BD4680BC704700BFF2
:1048C00000A0094080B582B000AF1A20FFF7C6FFF4
:1048D000204B5B6903F00103002B21D00AE0BB1DD4
:1048E00019461D4804F0C1FB0346002B0BD0FA8883
:1048F000184B1A66FFF7D0FF034683F00103DBB2C3
:10490000002BECD100E000BF134804F0E2FB0346AB
:10491000002B05D10F4B9B690E4A23F001039361D5
:104920000C4B5B6903F00203002B0FD0094B1B6F8C
:104930009BB2FB80FB881946084804F060FB0346E5
:1049400083F00103DBB2002B00D0FEE700BF083785
:10495000BD4680BD00A009406807002080070020F8
:1049600080B400AF184B01225A65174B4FF4807288
:104970005A65154B01225A61134B4FF480725A61EC
:10498000124B4FF40042C3F8B420104B4FF40042D6
:10499000C3F8B0200D4B4FF40042C3F880200C4BFD
:1049A0001B6C0B4A43F4405343F001031364084B60
:1049B0005B6D074A43F4405343F00103536500BF66
:1049C000BD4680BC704700BF0010094000F00B409E
:1049D0000050104082B02DE9B0438AB000AF3C1DBA
:1049E00084E807007B64BB6CBA681146184602F085
:1049F0008FF90346184600F0CDF978627B6C7A682F
:104A00001146184602F084F90346184600F0C2F930
:104A100038624FF08041786A02F01CF9034618466C
:104A200002F044FA02460B461046194604F02DFCEB
:104A300004460D464FF08041786A02F00BF90346B8
:104A4000184602F033FA02460B461046194604F0A7
:104A50001CFC02460B462046294601F0FBFD02469F
:104A60000B4690469946BB68184600F093F90346FA
:104A7000184602F01BFA02460B4610461946FBF791
:104A800053FD04460D46BB6C184600F083F90346FF
:104A9000184602F00BFA02460B4610461946FBF781
:104AA00043FD02460B462046294601F0D3FD02464F
:104AB0000B4614461D464FF08041386A02F0CAF892
:104AC0000346184602F0F2F902460B461046194614
:104AD00004F0DBFB02460B462046294601F0BAFDF6
:104AE00002460B4614461D464FF08041386A02F0DC
:104AF000B1F80346184602F0D9F902460B461046B3
:104B0000194604F0C2FB02460B462046294601F036
:104B1000A1FD02460B464046494601F08DFF024684
:104B20000B461046194602F013F80346FB61F8697C
:104B300002F0BCF902460B4610461946FCF77CFE13
:104B400004460D46F9694FF07E5002F0E1F8034645
:104B5000184602F0ABF902460B4610461946FCF720
:104B60006BFE02460B4620462946FBF755FC0246E3
:104B70000B4601F061FF02460B461046194601F054
:104B8000E7FF0346BB610C49B86902F00DF8034624
:104B90007B610A49786905F011F80346002B02D0C1
:104BA000012000F0E7F87B6918462837BD46BDE8CC
:104BB000B04302B0704700BF706DC24A0000204190
:104BC00082B02DE9B0438CB000AF3C1D84E80700F3
:104BD000FB64BB68184600F0DDF8B8627B681846D5
:104BE00000F0D8F878623B6D184600F0D3F83862D0
:104BF000FB6C184600F0CEF8F861796AF86902F0AB
:104C000087F80346BB61B86902F050F902460B46CB
:104C10001046194604F039FB04460D46386A02F086
:104C200045F902460B4610461946FBF77DFC024645
:104C30000B462046294601F00DFD02460B46104664
:104C4000194601F085FF03467B61B86A02F02EF930
:104C500002460B4610461946FBF766FC04460D4615
:104C6000386A02F023F902460B461046194604F052
:104C70000CFB02460B462046294601F0EBFC02469F
:104C80000B4690469946B86A02F010F902460B4668
:104C90001046194604F0F9FA04460D46386A02F047
:104CA00005F902460B4610461946FBF73DFC024645
:104CB0000B462046294601F0CDFC02460B46144621
:104CC0001D46B86902F0F2F802460B461046194636
:104CD000FBF72AFC02460B462046294601F0BAFCA7
:104CE00002460B464046494601F0CCFD02460B46C3
:104CF0001046194601F02CFF03463B61786902F02B
:104D0000D5F804460D46386902F0D0F802460B4645
:104D100020462946FBF780FB02460B461046194603
:104D200001F016FF0346FB62F86A00F05BF8F862D8
:104D30004FF00001F86A04F041FF0346002B05D054
:104D40000649F86A02F056F80346FB62FB6A184609
:104D50003037BD46BDE8B04302B070470000B443F1
:104D600080B400AF024B1846BD4680BC704700BF00
:104D70006508002080B483B000AF0346FB71044A8D
:104D8000FB79137000BF0C37BD4680BC704700BF75
:104D900065080020B0B582B000AF7860786802F096
:104DA00085F804460D460D4B184602F07FF84FF08B
:104DB00000020B4B01F0CCFC02460B462046294674
:104DC00001F048FC02460B461046194601F0C0FEB1
:104DD000034618460837BD46B0BD00BFDB0F49404B
:104DE00000806640B0B582B000AF7860786802F0AD
:104DF0005DF804460D460E4B184602F057F8024681
:104E00000B464FF000000B4901F0A2FC02460B4696
:104E10002046294601F01EFC02460B461046194664
:104E200001F096FE034618460837BD46B0BD00BFE8
:104E3000DB0F49400080664080B483B000AF03467A
:104E40003960FB7197F90730002B0ADB3B68DAB257
:104E50000C4997F907305201D2B20B4483F8002372
:104E60000AE03B68DAB20849FB7903F00F03043B20
:104E70005201D2B20B441A7600BF0C37BD4680BC3B
:104E8000704700BF00E100E000ED00E080B582B0B7
:104E900000AF78607B68013BB3F1807F01D30123D1
:104EA0000FE00A4A7B68013B536007214FF0FF3057
:104EB000FFF7C2FF054B00229A60044B07221A60DD
:104EC000002318460837BD4680BD00BF10E000E053
:104ED00080B582B000AF01233B60FFF741FDFFF7D3
:104EE000C7F8FEF7B5FFFCF739FF00237B604BF6F0
:104EF0008030FFF7CBFF07214FF0FF30FFF79CFF1B
:104F000062B600BFFEF7D2FFFFF7D2F8FFF728FF27
:104F10000346002B02D07B6801337B607B68042B47
:104F20000CD801A252F823F03D4F00003D4F000085
:104F30003D4F00003D4F00003D4F0000044B1B68FB
:104F4000012BE1D1FFF736F8014B02221A60DBE7B3
:104F50009C07002080B584B000AF1D4B1B68013357
:104F60001B4A13601A4B1A681A4B83FB02139911E0
:104F7000D317CB1A4FF47A7101FB03F3D31A002B2A
:104F80000CD1154B1B68002B08D13B1D1846FFF7B1
:104F9000D9F93B1D0ECB0C20FEF7B0FF0C4B1A6865
:104FA0000E4B83FB0213D912D317CB1A41F288316F
:104FB00001FB03F3D31A002B06D1074B1B68002B10
:104FC00002D1054B01221A6000BF1037BD4680BDDB
:104FD00098070020D34D62109C070020AD8BDB6842
:104FE00080B582B000AF3B4BD3F88830394A43F0EC
:104FF0000F03C2F88830374BD3F88C30354A43F46E
:10500000406343F00303C2F88C30324B324A9A605B
:10501000324BD3F82438314A43F48073C2F8243831
:105020002E4BD3F824382D4A23F00103C2F824383C
:105030004FF080731B68B3F1FF3F0FD04FF08073C8
:105040001B68274A934237D1264B1B68B3F1FF3FB9
:1050500032D1254B1B68B3F1FF3F2DD1234B4FF4C9
:10506000C0221A60214B224A1A60204B214A1A6042
:105070001E4B4FF424125A601C4B1D4A1A601B4BE6
:105080004FF420125A60194B0F221A601A4B4FF43A
:10509000EE421A620023FB7108E0174AFB791033D5
:1050A000002142F82310FB790133FB71FB79012BBE
:1050B000F3D90E4B0E4A1A60104BD3F800330F4A47
:1050C00043F08073C2F8003304F029F800BF0837BA
:1050D000BD4680BD00ED00E000000000001009406A
:1050E000000063594000000144000001001D094018
:1050F0000F0002000F00010000E00840000009401E
:105100000EB430B594B017AB53F8045B04463C22A0
:10511000002105A8049304F011F80A2308936FF006
:1051200000430793104B4FF0FF320293049B05A8F6
:10513000CDE900536FF00043059400F0B1F8079BF0
:105140000446013B002B079308DB0022059B1A70E5
:10515000204614B0BDE8304003B0704705A90020D8
:1051600004F07AF9F4E700BF89050000F0B50C46B9
:1051700016461F46054695B010B931BB012404AD53
:105180003C22002105A803F0D9FF0A2308936FF001
:1051900000430595002507930D4B621ECDE9017371
:1051A00000962B4605A800F07BF8079A0446013AC2
:1051B000AA42079204DB059B1D70204615B0F0BD86
:1051C000284605A904F048F9F7E74FF0FF34F4E763
:1051D000890500000FB473B506AB53F8046B0121C9
:1051E000324668460193FFF7C1FF041E13DD651CBC
:1051F000284601F0D5F8009068B132462946019B57
:10520000FFF7B4FF074B22460099186D03F02DFEFF
:10521000009804F03EFA204602B0BDE8704004B0A9
:10522000704700BFAC07002010B5174A174900208F
:1052300004F0A5F94FF480734FF480620021124806
:1052400004F004F8124A1349012004F098F94FF4CD
:1052500080734FF4806200210D4803F0F7FF0E4B7E
:105260001B68022B0EDD0D4A0A49022004F087F963
:10527000BDE810404FF480734FF48062002107486E
:1052800003F0E4BF10BD00BFAC070020949D0000F8
:10529000E8070020969D00005C9D00002408002087
:1052A0002DE9F04F06464FF000089DB0CDE90823E8
:1052B000279DDDF8989019F8010B18B940461DB0EC
:1052C000BDE8F08F252819D0089A4FEAE873904579
:1052D000099A934104DB08F10108CDF89890E8E7BA
:1052E000B368013B002BB36004DB33685A1C3260A7
:1052F0001870F0E7314604F0AFF8ECE7002416E050
:105300002D2F10D0302F50D04FF0000A0A22A7F1D5
:105310003003D9B2092925D802FB0A3A049B13F8B5
:10532000017B0493F3E744F00104DDF810904B4651
:1053300013F8017B2B2F04932ED0E1D8202F2ED0F1
:10534000232F2FD02A2FDFD1049B55F804AB1F78D1
:10535000BAF1000F09F10203BCBFCAF1000A84F0E0
:10536000010404932AEAEA732E2F059353D1049B78
:105370001F782A2F1CD04FF0000B0A220133049310
:10538000A7F13003D9B2092918D802FB0B3B049BC3
:1053900013F8017B0493F3E744F00204C5E744F0FB
:1053A0000404C2E744F00804BFE744F40074BCE717
:1053B000049B55F804BB5F7802330493BBF1000FE4
:1053C00029DB44F010046C2F0ED1049B1F786C2F46
:1053D00015BF049B5F780133023307BF44F06004BC
:1053E0000493049344F02004712F46D016DC682FF8
:1053F0004AD06A2F00F0A5804C2F3ED0572F15DCE5
:10540000412F00F0A68200F3A280002F4CD1049B14
:10541000013B049392E04FF0000BD4E7742F00F0AF
:1054200092807A2F00F08F80782F3DDCA7F158030F
:10543000202B39D8DFE813F090013800380038000D
:10544000380038003800380038008D023800A200DB
:105450005E028F008F008F0038005E023800380037
:1054600038003800DE001102D80138003800F8009A
:105470003800300238003800B401049B44F0600466
:1054800013F8017B04930DE0049B1F78682F04D16F
:105490005F7844F480740233F4E7049B44F08004A2
:1054A00001330493782FA9DD059B03F1FF3914F034
:1054B000010306931DD114F4007F0CBF4FF0200BA5
:1054C0004FF0300B44464FEAE873B9F1010958D563
:1054D000059B059A012BB8BF0123BAF1000FC2F159
:1054E0000109D8BF4FF00009013B9844059B023BDE
:1054F0009944089A4FEAE8739045099A08F1010A1D
:10550000934108DAB368013B002BB36054DB336886
:105510005A1C32601F70069B002B00F075845446A5
:105520004F464FF0200B4FEAEA78013F49D5B9F1D9
:10553000000FACBF0AEB09080AF10008DDF8109073
:10554000CBE644F04004049B13F8017B9AE727F074
:105550000203452BA8D1073525F00705F5E80223FE
:10556000CDE91223002314F0100F08BF4FF0060BF3
:105570001A461946184644F480643AE155F8047B0B
:1055800092E7089A9442099A73EB020109DAB1682A
:1055900001390029B16008DB3168481C306081F8AE
:1055A00000B0013443F100038FE7314658460793BA
:1055B00003F052FF079BF4E73146384603F04CFFF7
:1055C000A9E7089B9C42099B78EB030309DAB368BF
:1055D000013B002BB36008DB33685A1C326083F850
:1055E00000B0013448F100089FE73146202003F065
:1055F00033FFF6E767062A6805F1040305D54FEA8D
:10560000E871C2E900811D4698E7A50602D5C2F8F7
:105610000080F8E7E00502D582F80080F3E7210674
:10562000F5D5A2F80080EEE755F804ABAA4BBAF125
:10563000000F08BF9A46504603F04FFEE70681462A
:1056400002D55845A8BFD946059BA3EB090714F01E
:105650000103059310D114F4007F0CBF20223022E7
:105660004446BB464FEAE873BBF1010B20D527EA5D
:10567000E773013F9844FF1A44464FF0000B4FEA8E
:10568000E873CB4530DB059BB9F1000FA8BFC844D8
:10569000002B3FF453AF4446B9464FF0200B4FEA7E
:1056A000E87AB9F101093ED5002FA8BFB84445E713
:1056B00008998C42099973EB010108DAB168013944
:1056C0000029B16007DB3168481C30600A70013482
:1056D00043F10003C8E7104631460793069203F0F2
:1056E000BBFEDDE90623F2E7089A9442099A73EBC0
:1056F00002020ADAB268013A002AB2600BDB3268B1
:10570000511C31601AF80B10117001340BF1010BB0
:1057100043F10003B5E731461AF80B00069303F096
:105720009BFE069BF1E7089B9C42099B7AEB0303D7
:1057300009DAB368013B002BB36008DB33685A1CFD
:10574000326083F800B001344AF1000AA9E731461B
:10575000202003F081FEF6E714F040021DBFEA1D91
:1057600022F00702154655F8043B1CBF55F8083BCC
:10577000526814F080010DD000229BB2574914F0FA
:10578000080F574818BF0846E10601D524F40074F5
:1057900054492EE0E00544BF0A4603F0FF03EDE75D
:1057A00014F040021DBFEA1D22F00702154655F80D
:1057B000043B1CBF55F8083B526814F080010DD023
:1057C00000229BB2484914F0080F454818BF08460C
:1057D000E10601D524F4007444490AE0E00544BF21
:1057E0000A4603F0FF03EDE7002255F8043B3F496A
:1057F0003D48CDE90EB04FF0FF30DDF820C0CDE9D7
:105800001000BCEB080CCDF818C0DDF824C04FF038
:1058100000006CEBE87CCDF81CC00DF1500CE646A6
:105820004FF05509013020280EF8019BFAD114F4ED
:10583000826F04BF01200E906E2F00F39180472FDE
:1058400000F39F805123A7F14102D34013F00103DD
:1058500040F093814FF0000BCEE014F040021DBFEA
:10586000EA1D22F00702154655F8043B1CBF55F807
:10587000083B526814F0800108D000229BB21848FF
:105880001B4914F0080F18BF08464BE0E00544BF61
:105890000A4603F0FF03F2E714F040021DBFEA1DC1
:1058A00022F00702154655F8043B1CBF55F8083B8B
:1058B000526814F0800109D000229BB214F010014C
:1058C00002D0002124F40074054892E7E00544BFAB
:1058D0000A4603F0FF03F1E7989D00009F9D00003A
:1058E000E69D0000A79D0000A29D0000B89D00005D
:1058F000A59D0000600643BFEA1D22F00702154681
:1059000055F8043B46BF55F8083B5268DA172106A4
:1059100010D543F3C0321BB2002A11DA5B42B748FC
:1059200062EB420214F010013FF463AF002124F453
:1059300000745EE7E00544BF43F3C0125BB2EBE7DF
:10594000A10704D4AE48AF4914F0040F9BE7AE485A
:10595000E8E7E3065CBF4FF00D0B44F01004FAE5F6
:105960006F3F4FF0000B092F46D8DFE817F0B90062
:105970004200450045004500450003014500450043
:105980004200A7F1580011283FF664AF0FF2040E51
:105990005EF820F0C55A0000555800005558000028
:1059A0005558000055580000555800005558000043
:1059B00055580000555800007B5B0000555800000A
:1059C00055580000715B00007B5B00007B5B0000B2
:1059D0007B5B000055580000715B000003F00F0076
:1059E000085C1B0943EA02730BF1010B0CF8010B75
:1059F000120953EA0200F1D114F480630B9300F012
:105A0000CC8000230E93109B002BC4BF03F1FF3307
:105A10000E93119B0E9A002B02DD013B13440E9353
:105A20000F980E9F03F059FC059B5F44DF1B3B1A48
:105A300040F201270593274004F001030C9300F086
:105A4000D6800027B9464FEAE77A0F9B5A1C0F927F
:105A50001B780A93002B40F0D9800C9BABB914F44F
:105A6000007F0CBF202330233C46DDF814904FEA22
:105A7000E77AB9F1010940F1E480059B059A23EA30
:105A8000E373013A1F44D31A05930B9B002B00F0DC
:105A9000F2804FF0300A0A9B9B4500F305810C9B76
:105AA00073B13C464FF0200BDDF814904FEAE77AD3
:105AB000B9F1010940F18F81059B002BA8BFFF18A8
:105AC000B8443BE54FF0000B93E703F0070130319A
:105AD000DB0843EA42730BF1010B0CF8011BD208FF
