:1000000000600020A90100003F0200001B8D0000DD
:1000100043020000450200004702000049020000C0
:100020000000000000000000000000004B02000083
:100030004D020000000000004F0200006D4C000067
:10004000056C00000D6C0000156C00001D6C0000BC
:10005000256C00002D6C0000356C00003D6C00002C
:10006000456C00004D6C0000556C00005D6C00009C
:10007000656C00006D6C0000756C00007D6C00000C
:10008000856C00008D6C0000956C00009D6C00007C
:10009000A56C0000AD6C0000B56C0000BD6C0000EC
:1000A000C56C0000CD6C0000D56C0000DD6C00005C
:1000B000E56C0000ED6C0000F56C0000B943000039
:1000C000FD6C000005460000056D00000D6D000090
:1000D000156D00001D6D0000256D00002D6D0000E8
:1000E000356D00003D6D0000456D00004D6D000058
:1000F000556D00005D6D0000656D00006D6D0000C8
:10010000756D00007D6D0000856D00008D6D000037
:10011000956D00009D6D0000A56D0000AD6D0000A7
:10012000B56D0000BD6D0000C56D0000CD6D000017
:10013000D56D0000DD6D0000E56D0000ED6D000087
:10014000F56D0000FD6D0000056E00000D6E0000F5
:10015000156E00001D6E0000256E00002D6E000063
:10016000356E00003D6E0000456E0000249C0000CE
:10017000000000200C000000249C0000000000048F
:1001800000000000249C000000200004000000008B
:100190000C0000202C0800000000000400000000FB
:1001A000002000040000000072B6134B134A1748E9
:1001B0000360196881F3088882F30A8804F09AFDC5
:1001C0000F4B07E003F10C049A685968186800F0B7
:1001D0001FF823460B4A9342F4D306E01C465968A5
:1001E00054F8080B00F022F82346074A9342F5D34F
:1001F00062B608F0B3FDFEE700000000005A0020E0
:100200006C01000090010000A801000008ED00E072
:100210000023934209D210B450F8044B41F8044B28
:1002200004339342F8D310BC70477047002303E0B7
:10023000002240F8042B04338B42F9D37047FEE7C9
:10024000FEE7FEE7FEE7FEE7FEE7FEE7FEE7FEE786
:10025000FEE7FEE7FFFFFFFF80B584B000AFC7E910
:1002600000010023FB6026E033A3D3E90023D7E994
:10027000000109F034FA0346002B0ED02EA3D3E977
:100280000023D7E9000106F0EDF802460B46C7E966
:100290000023FB680533FB600DE04FF000022A4BA2
:1002A000D7E9000106F0DEF802460B46C7E9002355
:1002B000FB680133FB604FF00002234BD7E90001DC
:1002C00009F00DFA0346002BCED126E01CA3D3E99A
:1002D0000023D7E9000109F082F90346002B0ED074
:1002E00015A3D3E90023D7E9000106F03DF8024643
:1002F0000B46C7E90023FB68053BFB600DE04FF0B0
:100300000002114BD7E9000106F02EF802460B4619
:10031000C7E90023FB68013BFB604FF000020B4B79
:10032000D7E9000109F05BF90346002BCED1FB6849
:1003300018461037BD4680BD00000000006AF84036
:10034000F168E388B5F8E43E000024400000F03F87
:1003500080B584B000AF78604FF000022C4BC7E945
:1003600002231FE07B68042B0EDD27A3D3E90023C3
:10037000D7E9020105F0F8FF02460B46C7E9022360
:100380007B68053B7B600DE04FF00002214BD7E915
:10039000020105F0E9FF02460B46C7E902237B682C
:1003A000013B7B607B68002BDCDC20E07B6813F189
:1003B000040F0EDA14A3D3E90023D7E9020106F0F3
:1003C00051F802460B46C7E902237B6805337B6080
:1003D0000DE04FF000020F4BD7E9020106F042F8A2
:1003E00002460B46C7E902237B6801337B607B68CA
:1003F000002BDBDBD7E90223104619461037BD4638
:1004000080BD00BFAFF3008000000000006AF8402C
:100410000000F03F000024402DE9F84316461F4637
:1004200004460D46002200233046394609F0BFF845
:1004300078B1002200232046294609F0B8F840B1DF
:1004400021220024364B374D1A6020462946BDE84C
:10045000F8833046394608F08CFC804689462046B1
:10046000294608F086FC02460B464046494609F0FC
:10047000B6F8C0B122462B463046394605F0F2FFA9
:1004800008F077FC1EA3D3E9002309F0A8F850B1C7
:10049000002200232046294609F0A1F858B31AA5E6
:1004A000D5E90045D1E732463B462046294605F0CE
:1004B000D9FF01F049FB002204460D4600233046D7
:1004C000394609F08CF80028BFD0002200232046CE
:1004D000294609F0AFF80EA3D3E9002330B1204636
:1004E000294606F059F804460D46AEE7204629464F
:1004F00006F02CF9F7E708A5D5E90045A5E700BF08
:100500002342920CA19CC73B182D4454FB21F9BFF8
:10051000182D4454FB210940182D4454FB21F93F68
:10052000700700200000F0FFF7B50023002204460A
:100530000D4609F054F8A0B111A1D1E900012246FD
:100540002B4606F029F8012306460F46CDE9003375
:10055000204632463B4605F1004101F0F5F903B073
:10056000F0BD07A3D3E900232046294606F0EEF8A4
:1005700001230246CDE9003320460B462946ECE72D
:10058000182D4454FB21F93F2DE9F04F9DB014463E
:100590000693D1E90023CDE90423059B8246089305
:1005A00047F6F073089ADDF89C9033EA124320D1A5
:1005B0000023E370C2F31303049A134340F0A884AA
:1005C000089B002BC0F2AA84069B98070FD4A84A68
:1005D00013F0040FA74B18BF134669226E20662143
:1005E0002270269A6070A1700325136039E3A24B34
:1005F000F3E720F02003412B00F0F082DDE9040155
:100600000022002308F0EBFF0546002834D0DDE986
:10061000040303F1004101230FAA079308F025FE0C
:1006200040F22D15CDE910014FF47A710F9A002098
:100630005543A5F5AB531C3B93FBF1FB8F49ABEB4B
:10064000020205F0DDFC41F294139D42CDE91A014E
:100650001FDC81A3D3E90023CDE91623CBF10005EC
:10066000E9071FD4DDE91601DDE9162305F07CFE5C
:100670006D10CDE91601F3E70023DDE90401002246
:1006800008F095FF0346002840F0A282DDE904014E
:10069000C2E700227A4BCDE91623BBF1000F0BD045
:1006A0005D46DDE7DDE91601DDE91A2305F05CFEB4
:1006B000012DCDE91A01D5D1DDE91001DDE91A23BB
:1006C00005F0D0FE0026CDE912016E4FDDE91201E2
:1006D00063A3D3E9002308F082FF002840F0938051
:1006E0000026684FDDE912015FA3D3E9002308F07B
:1006F000F6FF002840F09A80DDE9120108F00BFFB8
:1007000005468BEAEB73A3EBEB7309930F9A28462C
:10071000ABEB020608F043FF324605F071FC002205
:100720000023BBF1000FCDE91201CDE9142380F2C3
:10073000AB8049A1D1E90001CDE91601CDE918232B
:10074000DDE91667DDE916010026DDE91823CDE9AC
:100750000A2332463B4605F01FFFDDE90A2305F078
:10076000F5FFCDE91801CDE91667DDE91601002294
:10077000434B05F0F9FD02460B4600203F4905F0CA
:100780000BFF00223E4B05F06DFECDE91801DDF8B0
:10079000248018F0010F40F08E80DDE91623DDE99A
:1007A0001801DDE91867CDE90A011046194605F080
:1007B000CDFFDDE90A2305F0C9FF32463B4605F0CF
:1007C000D3FDCDE91801DDE91601DDE9162305F0B9
:1007D000CBFDCDE91601DDE91667DDE9160100263E
:1007E000DDE91823CDE90A2332463B4605F0D4FE65
:1007F000DDE90A2305F0AAFF4FEA6808CDE91801F0
:10080000CDE91667C5E7DDE9120132463B4605F042
:10081000ABFDCDE91201DDE91A0132463B4605F098
:1008200021FE0BF1FF3BCDE91A014FE7DDE9120193
:1008300032463B4605F016FECDE91201DDE91A010C
:1008400032463B4605F090FD0BF1010BCDE91A0154
:1008500048E700BFAFF300809A9999999999C93FE9
:1008600000000000006AF8400000000080842E4173
:100870001E9A0000A29A00001C9A00000000F03F9F
:1008800000001440000024404FF00002B64BCDE9B8
:1008900016234FF000024FF00003CDE918237FF438
:1008A00076AFDDE91201DDE9102308F0EEFE002845
:1008B00047D1013D2AE7DDE91223CDE90A23DDE92D
:1008C0001823DDE91601CDE90C23DDE91823DDE964
:1008D000146705F03BFF32463B4605F045FDDDE978
:1008E0000C2306460F46DDE90A0105F03DFD0246F0
:1008F0000B463046394605F029FFCDE91401DDE904
:100900001601DDE9122305F02FFDCDE91201DDE925
:100910001267DDE912010026DDE91423CDE90A237F
:1009200032463B4605F038FEDDE90A2305F00EFFAE
:10093000B8F1010FCDE91401CDE912677FF42DAFB5
:10094000AFE7DDE91223DDE9100105F025FECDE971
:100950001001DDE91423DDE9100105F01DFECDE9EC
:100960001001DDE91A23DDE9100105F07BFD7CA310
:10097000D3E90023CDE91001DDE9100105F0F4FC15
:10098000CDE91001DDE9100108F0C5FDDDE91067D2
:10099000804608F004FE02460B463046394605F014
:1009A000FBFD6FA3D3E9002305F0DEFCCDE91001C8
:1009B000DDE9100108F0AFFD0646002EC0F2C2804E
:1009C0006A4B9E4200F3C580B8F1000FC0F2DA8096
:1009D000664B984500F3DC80654A954200F3DE8063
:1009E000644B0A21B8FBF3F2B6FBF3F3624801FB58
:1009F000052500FB028201FB023800FB036301FBBB
:100A000003F60BF1FF3B21463027284601F8067B11
:100A100008F0E3F9404604F10C0108F0DEF9304635
:100A200004F1120108F0D9F900232375079B0BF19B
:100A3000050BE77443EA8B0B002B40F0D480069B38
:100A40009A0700F1CE804D4A13F0040F4C4B18BFAB
:100A500013463BF0010B269A48BF0BF1030BBAF18A
:100A6000670FD9F8001013604FEAAB0B0EDCBAF138
:100A7000600F00F3BA80BAF1450F00F0C881BAF1F7
:100A8000470F05D0BAF1410F00F0C6804FF0670A5A
:100A9000069B002943F400630693DCBF0123C9F8D9
:100AA0000030D9F8001020461129A8BF11210131CA
:100AB00008F06DF9D9F8003083445B4540F3A2811A
:100AC0001BF1040FC0F29E810BF101029B1AC9F8C1
:100AD0000030069ABBF1000FD9F8003002F400662E
:100AE00080F21481CBF100075A1CBA4280F2D78001
:100AF000302323702E2302256370D9F80030299A01
:100B00001360299B1B68002B02DD3E2363550135D2
:100B1000069B03F00803002E00F05B81002B40F0E1
:100B2000A080254415F8013C6A1E302B00F04F814F
:100B30003E2B00F04C812E2BA5EB040540F091805C
:100B4000013D8EE006F5742606F5107608F1FF38B3
:100B500033E7A6F57426A6F5107608F1010830E70C
:100B60000000000080842E41000014403F420F002E
:100B70009F860100A08601006079FEFF1E9A00009A
:100B8000A29A000008F5742808F51078013D1BE7CB
:100B9000A8F57428A8F5107801351AE79D427FF76B
:100BA00032AF0A226FF0090795FBF2F107FB015300
:100BB0008B480D4600FB038393FBF2F807FB0833D9
:100BC00000FB0363053393FBF2F60BF1010B1AE70D
:100BD0006FF0040B2E46A846079514E74FF0000B64
:100BE0002DE7804B35E7804B33E7AAF16103062BF5
:100BF0003FF64CAF01A252F823F000BF190C0000E1
:100C00008D0A00008D0A00008D0A00000F0E000002
:100C1000D30A0000910A0000089B049DC3F30A5206
:100C2000C3F313000AB3A2F2FF33069E06F00806D0
:100C30000E4320D16D486E49002A14BF3122302264
:100C4000BAF1610F18BF0146204604F0E3F8694A83
:100C50000599654B054613EA210338BF1346269ACA
:100C6000136028461DB0BDE8F08F55EA00030CBFA5
:100C70001346614BD9E7CDE9005002935F480B461C
:100C80005F49002A14BF31223022BAF1610F18BF28
:100C90000146204604F0BEF8D9E71546EBE05B4478
:100CA0009D1C122DC1BF299A113B1325136076B9E3
:100CB0002946204608F06BF848B17FEA0B0705F19A
:100CC000010504D1637823702E23637019E7012F87
:100CD00004EB05030CD11A1B002A02DC302301357A
:100CE000F1E713F801299A70F5E713F80129DA7092
:100CF0001A1B002AF9DC302323702E2363703C2357
:100D0000A370289B013F02351F60FAE60BEB030737
:100D1000BD1C122D45DD26B91321204608F037F8F9
:100D2000E0B91323132B0CBF122213225A4519DDED
:100D3000621E04EB0B01907802F8010F9142FAD188
:100D40002E224A70D9F8002029995A44113A0A6093
:100D5000002A3AD03E225D1CE254D9E614230BF15E
:100D6000010BDFE7621CE11812F8010B914202F857
:100D7000020CF9D13C22ABEB030B01F8012C2899B2
:100D80000BF102020A602E22E254D9F800205D1C09
:100D9000002A3FF4BDAE29990A603E2262559D1C8F
:100DA000B6E63EB92946204607F0F1FF10B10BF137
:100DB000010BFD1C631EA3449A7803F8012F9B4589
:100DC000FAD12E238BF80130A2E61D46A0E6154687
:100DD000A8E6D9F8002013437FF443AFB0E600BF84
:100DE00040420F001C9A0000209A00002A9A00003E
:100DF000229A0000A29A000001FCFFFF419A000025
:100E0000329A0000013BC9F80030AAF1020AD9F871
:100E10000030112B05DD299A113B13601123C9F80D
:100E20000030069BD9F8005013F4006605F1020566
:100E300004D12946204607F0AAFF83446378237033
:100E4000069BD9F8002023F4FE6323F007031B055B
:100E50001B0D13431CBF2E236370299B08BF012564
:100E60001B68002BC2BF3E23635501358EB1069B24
:100E70001B070ED4254415F8013C6A1E302B3FF4A5
:100E80000CAF3E2B3FF409AF2D1B2E2B08BF05F1F5
:100E9000FF35BBF1000FB6BF2D222B22CBF1000B8B
:100EA00060195FFA8AF6691CBBF57A7F067005F156
:100EB000020362540ADB4FF47A72BBFBF2F202F1D6
:100EC0003001E154184B03FB02BBEB1CBBF1630F79
:100ED0000ADD64229BFBF2F202F13001E1546FF073
:100EE000630101FB02BB01330A229BFBF2F2D2B287
:100EF00002F13001E154C2EB4211C2EB81020BF16D
:100F0000300B9D1C0BEB420B234483F801B0A8E689
:100F10006E2261201146054BFFF762BB69226E20ED
:100F20006621034BFFF75CBB18FCFFFFA29A000091
:100F3000209A0000FFFFFFFF00232DE9F04F044639
:100F40009DB0CDE9043311920E78002E50D0252E9D
:100F5000DFF8CC9201F1010A4ED009EB060292F8BB
:100F600080206368D20703F1FF3324D555461AF871
:100F7000013B4B4493F88030DF07F7D46368013BB3
:100F8000002B636013DB23685A1C2260187809EB7E
:100F9000000393F88030DE0705D4214608F02BF8D3
:100FA000AA465146D0E7049B01330493E6E7204666
:100FB00004F06AFFEBE7002B636009DB23685A1C2F
:100FC00022601D78B54208D1049B01330493E8E701
:100FD000204604F059FF0546F4E72146284608F06C
:100FE0000AF8013504D1059B13B94FF0FF3305937F
:100FF00005981DB0BDE8F08F4B784FF000082A2B04
:1010000006BF01F1020A0126002652460A20854940
:101010001AF8013B09EB030595F88050AD0600F185
:10102000038116F0080F08BF6FF000486C2B40F0EA
:1010300008819AF8003046F0020602F1020A782B85
:10104000D6DC572B00F30C81252B00F05381242B89
:10105000CEDD23F00203452BCAD14FF0FF35636884
:10106000AB46013B002B05F101056360C0F29081A6
:1010700023685A1C2260187809EB000393F880302B
:10108000DB07ECD4471CAED0B8F1000F00F08A812A
:101090002B2800F081812D2840F0848146F40077D0
:1010A00063680BF10205013B002B6360C0F276819F
:1010B00023685A1C2260187808F1FF3852A3D3E93C
:1010C0000023CDE9082300230022CDE90A230023D1
:1010D0009B4608F1FF390693B9F1FF3F40F0648168
:1010E000214607F088FFDDE90A010A23032203FBFA
:1010F0000BF393FBF2F3ABEB03084246109304F0BF
:101100007FFFCDE90C01069808F049FA424604F049
:1011100077FFBBF1000FCDE90A0180F2EC813CA31F
:10112000D3E90023CBF1000BCDE908233AA3D3E99F
:1011300000234FF000084FF00009CDE906231BF013
:10114000010F39D0DDE90823DDE9060105F0FEFADB
:1011500002460B46CDE90E01DDE90C0105F004F96C
:1011600042464B46CDE90C01DDE90E0105F0FCF8E5
:10117000DDE90A2380468946DDE9080105F0F4F837
:1011800042464B4605F0E2FADDE90A2380468946ED
:10119000DDE9060105F0E8F800220B46CDE90A2357
:1011A00005F0FAF942464B4605F0D0FABBF1010FC3
:1011B0008046894600F0AB81DDE9062310461946DA
:1011C00005F0C4FADDE9082305F0C0FA02460B4633
:1011D000DDE9080105F0C8F8DDE90623CDE90801DD
:1011E0001046194605F0C0F800220B46CDE906234B
:1011F00005F0D2F9DDE9082305F0A8FA4FEA6B0BF8
:10120000CDE908019BE700BF9A9999999999B93F4F
:10121000333333333333733E000000009999C93FB1
:10122000A39A0000CCCCCC0C88453FF7E1AE00FB84
:101230000833B3F130083FF5DBAE524646F00806FE
:10124000E6E64C2B04D19AF8003046F01206F4E69C
:10125000682B7FF4F4AE9AF8003046F00406ECE612
:10126000583B202B3FF6C4AE01A252F823F000BF3A
:101270002D170000F10F0000F10F000035170000DE
:10128000F10F0000F10F0000F10F0000F10F00005E
:10129000F10F0000F10F0000F10F00001513000026
:1012A0007B1300005B1000005B1000005B1000006F
:1012B000F10F000037160000F10F0000F10F0000E1
:1012C000F10F0000F10F00003F1600005316000060
:1012D00081160000F10F0000F10F00008D160000D4
:1012E000F10F000023170000F10F0000F10F0000C4
:1012F0002D1700006368013B002B636005DB23684A
:101300005A1C22601D78252D5DE6204604F0BCFDA8
:101310000546F8E716F0080F08BF4FF0010816F071
:10132000010609BF119B00251A1D1D6808BF1192F7
:10133000B8F1000F3FF45CAE049B9844049B01336A
:1013400004936368013B002B636010DB23685A1C25
:10135000226018780EB905F8010B049B4345EDD1C6
:10136000002E7FF41EAE059B0133059319E620463F
:1013700004F08AFD421CEDD135E60A23CDF8008049
:1013800046F02002204611A904F03EFC0546F2E09A
:10139000204604F079FD6FE6374681E6204604F0EA
:1013A00073FD89E6374689E62E2811D179060FD4D8
:1013B00047F0400863680135013B002B63603CDB6C
:1013C00023685A1C22601878474609F1FF3983E6E2
:1013D000A24B034493F880309A0632D5069BA04A6C
:1013E00047F48078934207F04007A0F1300009DC11
:1013F0000A23069A03FB02030693002FDAD00BF1AF
:10140000FF3BD7E708F0CBF8DDE9082304F0ACFF99
:1014100002460B46DDE90A0105F098F90022CDE904
:101420000A01DDE908018F4B05F01CF8CDE9080140
:10143000002FBFD10BF1010BBCE7204604F024FDC7
:10144000C2E720F02003452B7FF44AAEFB057FF571
:1014500047AE636827F4C077013B002B63601CDB59
:1014600023685A1C226018782B281CD02D2818D0ED
:1014700001354FF000080A22784BA944A9EB050179
:10148000002904DD191891F8801089061CD43B0648
:101490004CBFABEB080BC34422E6204604F0F4FC3F
:1014A000E2E747F0800763680235013B002B636089
:1014B00006DB23685A1C2260187809F1FF39D8E747
:1014C000204604F0E1FCF8E7616830380139002972
:1014D00002FB080847F4807705F10105616004DB31
:1014E0002168481C20600878C8E7204604F0CCFC3E
:1014F0000A225A4BC2E706D000220023CDE9082376
:101500000022594B15E64FF000084FF00009DDE9C5
:101510000C0142464B4605F019F9DDE90A2305F0B6
:1015200015F913AA07F0A1FE139BDDF840B0804621
:101530009B44BBF5806F8946CDF84CB024DD00227A
:10154000B9054CBF494B4A4BCDE902232222494BF6
:101550001A60FB057FF54CAD07F00108BF0735D5D4
:10156000B8F1000F07D1119B1A1D1B681192DDE91C
:101570000212C3E90012002DFFF633ADF30740F16C
:101580002E81049B2B4421E56FF47F739B450CDA7D
:101590000022002308F00BF838B92222354B1A60DC
:1015A00000220023CDE90223D3E7BB055A4640467B
:1015B000494606D504F024FD01F10043029003934F
:1015C000C7E704F01DFDCDE90201C2E714AADDE979
:1015D000020107F04AFE149B7E33002B149313DCA8
:1015E000DDE902010022002307F0E1FFF0B9222229
:1015F0000020204B1A60B8F1000FBCD1119B1A1DBE
:101600001B6811921860B6E7FE2B0FDDDDE90201C1
:101610000022002308F063F8174A184B2221002803
:1016200008BF1346134A18681160E4E7DDE90201B8
:1016300005F018F9DFE70023CDF80080A0E6119B44
:10164000700753F8042B1193049B4CBF1380136055
:10165000A7E40823CDF8008092E600BFA39A00001B
:101660009F86010000002440000014400000F0FFAD
:101670000000F07F70070020000000200400002020
:101680001023CDF8008026F006027BE64FF0FF35F0
:1016900063680135013B002B63602ADB23685A1C19
:1016A0002260187809EB000393F8807017F00107A7
:1016B000EED1411C3FF497AC16F0010B08BF119B13
:1016C000A84402BF1A1D1F681192454507D0421C4D
:1016D00005D009EB000393F88030DB070DD52146D8
:1016E00007F089FCBBF1000F7FF445AF87F800B02D
:1016F00041E7204604F0C8FBD4E7BBF1000F01D15D
:1017000007F8010B63680135013B002B636004DBC4
:1017100023685A1C22601878D7E7204604F0B4FBEF
:10172000D3E70A233246CDF800802BE61023CDF80C
:10173000008025E600229AF8003001255E2B14BFB8
:1017400000210121CDE91422CDE91622CDE918228C
:10175000CDE91A220ABF9AF801300AF1010A0AF10A
:10176000020A002B3FF444AC5A111CA800EB820281
:1017700052F8200C03F01F0305FA03F3034342F869
:10178000203C1AF8013B5D2BEBD161BB16F0010642
:1017900033D000276368013B002B636032DB236892
:1017A0005A1C226018780025A84511D0411C0FD082
:1017B00003460028B8BF00F11F031CAA5B1102EB0F
:1017C000830353F8203C00F01F021341DA0720D4B2
:1017D000214607F010FC002E7FF4D3AE3E70059B2F
:1017E00001330593CDE6002314AA11680133C943E0
:1017F000082B42F8041BF8D1C8E7119B1A1D1F687B
:101800001192C7E7204604F03FFB451CCBD1FFF700
:10181000EABB0EB907F8010B63680135013B002BE9
:10182000636004DB23685A1C22601878BCE72046FA
:1018300004F02AFBB8E700BF2DE9F843002200239B
:1018400004460D4607F021FF78B100220023204610
:10185000294607F0C4FE20B121220024364B374D23
:101860001A6020462946BDE8F88340F2FE33C5F3EE
:101870000A5763F31E55204629A3D3E900232946BE
:1018800004F072FD28A3D3E9002304F05FFF804633
:10189000894602460B462046294604F0E3FD4246AF
:1018A0004B4604F053FF0022254B04F05DFD8046BB
:1018B000894602460B462046294604F0D3FD42469F
:1018C0004B4604F043FF00221D4B04F04DFD8046C3
:1018D000894602460B462046294604F0C3FD42468F
:1018E0004B4604F033FF0022154B04F03DFDA7F2F8
:1018F000FE36F20704460D4609D50DA3D3E90023B1
:1019000004F032FD6FF47F7304460D46FE18C5F3F4
:101910000A5306EBD67603EB660363F31E55A0E786
:1019200018096D3997E2E23FF7CC920035B5DA3FFE
:10193000CD3B7F669EA0E63F700700200000F0FFD1
:101940000000E03FFFFFFFFF2DE9F0471446DDE90F
:1019500008761D465CA3D3E90023804689462046CD
:10196000294607F0BCFE40B121220024724B734D82
:101970001A6020462946BDE8F087204654A3D3E9E3
:101980000023294604F0E2FE53A3D3E9002304F028
:1019900069FD07F0C0FD824607F001FE1AF0010F55
:1019A00004460D4618BF7F422EB10022644B04F05E
:1019B000F3FD04460D464AA3D3E9002320462946F9
:1019C00004F0D2FC02460B464046494604F0E4FDD2
:1019D00045A3D3E90023804689462046294604F0E2
:1019E000C3FC02460B464046494604F0AFFE04469F
:1019F0000D4607F0BEF93EA3D3E9002307F06FFEC2
:101A0000002857D022462B462046294604F0ACFC3D
:101A100039A3D3E900238046894604F0A5FC38A306
:101A2000D3E9002304F0B8FD42464B4604F09CFC89
:101A300035A3D3E9002304F089FE42464B4604F067
:101A400093FC33A3D3E9002304F0A6FD42464B46A2
:101A500004F08AFC30A3D3E9002304F077FE424669
:101A60004B4604F081FC2EA3D3E9002304F094FD3F
:101A700042464B4604F078FC2BA3D3E9002304F044
:101A800065FE42464B4604F06FFC29A3D3E90023D0
:101A900004F082FD42464B4604F066FC22462B468B
:101AA00004F062FC02460B462046294604F04EFE36
:101AB00004460D46002FBFBF224605F100431446E1
:101AC0001D4656E7AFF300800000000065CDCD4114
:101AD000182D4454FB21F93F182D4454FB21094093
:101AE00000000000002209409EE59E4BEFAEE23E62
:101AF000BBBDD7D9DF7CDB3D95DF9369FF80E83C38
:101B00009C4908DC20E46A3D30D46A683C12E63D1A
:101B1000ABC05D4B45E65A3E63F024A5E31DC73ECE
:101B20001A3E011AA0012A3FB01011111111813F74
:101B3000555555555555C53F700700200000F0FF1D
:101B40000000E03FFFFFFFFF02460B462DE9F34791
:101B5000CDE9002307F00DF900227D4B04460D4628
:101B600007F068FD002800F0C18022462B460020C7
:101B7000774904F077FC4FF0020A04460D465CA357
:101B8000D3E900232046294607F054FD28B35AA381
:101B9000D3E900232046294604F0E6FB00226D4BE2
:101BA00004F0FAFC00226B4B04F0F6FC22462B46B4
:101BB00004F0CCFD52A3D3E9002306460F4620468D
:101BC000294604F0C3FD02460B463046394604F070
:101BD00049FC04460D460AF1010A2046294607F051
:101BE000C8F849A3D3E9002307F024FD00285DD0FD
:101BF00022462B462046294604F0B6FB44A3D3E9EF
:101C0000002306460F4604F0AFFB43A3D3E90023AD
:101C100004F0C2FC32463B4604F0A6FB40A3D3E9E5
:101C2000002304F0B9FC32463B4604F09DFB3EA382
:101C3000D3E9002304F0B0FC32463B4604F094FBA9
:101C40003BA3D3E90023804689463046394604F059
:101C50007DFD32463B4604F087FB37A3D3E90023E2
:101C600004F074FD32463B4604F07EFB34A3D3E916
:101C7000002304F06BFD32463B4604F075FB32A3B3
:101C8000D3E9002304F062FD02460B464046494674
:101C900004F0E8FB22462B4604F066FB02460B46A6
:101CA0002046294604F052FD04460D46BAF1010FC4
:101CB00002DD05F100431D46274B204603EBCA0316
:101CC000D3E90023294604F041FD002204460D46D5
:101CD000DDE90001002307F082FC10B105F10043AB
:101CE0001D462046294602B0BDE8F087824646E7F9
:101CF00056CD9E5E1426D13F5599B0D0F56CE73F86
:101D0000AA4C58E87AB6FB3FBBBDD7D9DF7CDB3D98
:101D1000BD87B1D97ACDEABF636A8D5C3FFD2040B3
:101D2000CBBCE2B97F813440E21C0651A6602B4057
:101D300010C74AE1490C2E40D7A30D320ACA4D40C4
:101D4000A56D0B04128A5540A995C4BC7C884440FB
:101D50000000F03F0000E03FB898000080B584B07C
:101D600000AF7860786805F038F90346FB73FB7BB9
:101D7000002B57D17B685B79012B47D17B68002210
:101D80005A717B681B78032B40D17B6834334FF446
:101D900000720021184606F0EAFF7B6834332449BC
:101DA000184605F0A7F87B68343303F5F273214930
:101DB000184605F09FF87B68343303F5F4727B68AE
:101DC0001B691946104605F095F87B68343303F516
:101DD000F6727B68DB681946104605F08BF87B6865
:101DE000343303F5F9731449184605F083F87B681A
:101DF00058787B6803F134017B681B6A5A1C7B6846
:101E00001A637B681A6B012301F0C0FE7B685B7864
:101E100000220021184606F0EFFD0346002B01D0FA
:101E20000123FB73FB7B18461037BD4680BD00BF06
:101E30005252614172724161000055AA80B58AB068
:101E400000AF786039603B681B687B617B6820333A
:101E50003B610B222021386906F089FF0023BB611A
:101E6000BB69FB6108233B627A69FB6913441B78F9
:101E70002E2B36D1FB695A1CFA617A6913441B7800
:101E800087F8273097F827302E2B0BD1FB69022BD0
:101E900008D8BB695A1CBA613A69134497F82720DD
:101EA0001A70E7E797F827302F2B09D097F82730DB
:101EB0005C2B05D097F82730202B01D90623BCE0F6
:101EC0007A69FB691A443B681A6097F82730202B1F
:101ED00001D8242200E020223B690B331A70002332
:101EE000ABE0FB695A1CFA617A6913441B7887F8E6
:101EF000273097F82730202B7CD997F827302F2BC5
:101F000007D097F827305C2B10D102E0FB69013332
:101F1000FB617A69FB6913441B782F2BF6D07A6931
:101F2000FB6913441B785C2BF0D064E097F82730F2
:101F30002E2B03D0BA693B6A9A420DD33B6A0B2B16
:101F400003D097F827302E2B01D0062375E0082305
:101F5000BB610B233B624CE097F82730184604F036
:101F6000F4FF0346002B24D0FB695A1CFA617A69FE
:101F700013441B78FB73FB7B184605F005F80346FA
:101F8000002B04D03B6A013BBA699A4201D3062375
:101F900053E0BB695A1CBA613A69134497F8272089
:101FA0001A70BB695A1CBA613A691344FA7B1A70F9
:101FB00097E797F827301946224806F09BFF03461B
:101FC000002B01D0062338E097F82730602B08D982
:101FD00097F827307A2B04D897F82730203B87F8DA
:101FE0002730BB695A1CBA613A69134497F8272015
:101FF0001A7076E700BF7A69FB691A443B681A6079
:10200000BB69002B01D1062317E03B691B78E52B48
:1020100002D13B6905221A7097F82730202B05D989
:102020007A69FB6913441B78202B01D8042200E055
:1020300000223B690B331A70002318462837BD462F
:1020400080BD00BFD898000080B487B000AF786032
:102050007B681B68FB60FB687B61FB68002B02D11F
:102060004FF0FF332DE07B695A1C7A611B78FB72BD
:10207000FB7A202B02D9FB7A3A2BF4D1FB7A3A2B4C
:102080001DD101233B61FB681B782F2B0CD9FB680A
:102090001B78392B08D8FB6802337A699A4203D13E
:1020A000FB681B78303B3B613B69002B02DD4FF046
:1020B000FF3306E07B687A691A603B6901E0034BF5
:1020C0001B7818461C37BD4680BC7047320800207C
:1020D00080B584B000AF786039607B6800221A71E7
:1020E0007B684FF0FF321A633968786804F0B1FFFB
:1020F0000346002B01D0042388E07B68343303F5CA
:10210000FF73184604F0A2FE0346FB817B6893F838
:1021100034307B737B7BEB2B05D07B7BE92B02D0B0
:102120007B7BE82B6AD1FB894AF6552293420CD17E
:102130007B683433523308223649184606F05FFE76
:102140000346002B01D1002360E07B6834330B335E
:10215000184604F07BFE03467B817B6893F8413090
:102160007B737A897B89013B1340002B46D17B89A5
:10217000B3F5007F42D37B89B3F5007F3ED87B7BEC
:10218000002B3BD07A7B7B7B013B1340002B35D16E
:102190007B6834330E33184604F058FE0346002B98
:1021A0002CD07B6893F84430013B012B26D87B6808
:1021B00034331133184604F049FE0346002B1DD07A
:1021C0007B6834331333184604F040FE03467F2BFC
:1021D00009D87B6834332033184604F04FFE034699
:1021E000B3F5803F0AD37B6834331633184604F0C6
:1021F0002DFE0346002B01D0002307E0FB894AF6A1
:102200005522934201D1022300E0032318461037E0
:10221000BD4680BDE898000080B590B000AFF86082
:10222000B9601346FB71BB6800221A60F868FFF7BB
:102230000BFFF862FB6A002B01DA0B23DDE19D4AFC
:10224000FB6A52F82330BB62BB6A002B01D10C231E
:10225000D3E1BB68BA6A1A60FB7923F00103FB7112
:10226000BB6A1B78002B1AD0BB6A5B78184601F05A
:1022700011FB034687F8273097F8273003F0010356
:10228000002B0CD1FB79002B07D097F8273003F0F7
:102290000403002B01D00A23AFE10023ADE1BB6AA8
:1022A00000221A70BB6A5B78184601F007FB0346F0
:1022B00087F8273097F8273003F00103002B01D06F
:1022C00003239AE1FB79002B07D097F8273003F01E
:1022D0000403002B01D00A238FE10021B86A05F026
:1022E0003DFD38633B6B042B01D1012385E13B6B42
:1022F000012B01D90D2380E1BB6A1B6B3B62BB6ADA
:1023000034330B33184604F0A1FD0346B3F5007FC8
:1023100001D00D2371E1BB6A34331633184604F043
:1023200095FD0346BB63BB6B002B06D1BB6A343300
:102330002433184604F0A2FDB863BB6ABA6BDA61B5
:10234000BB6A93F84420BB6ADA70BB6ADB78012B66
:1023500005D0BB6ADB78022B01D00D234DE1BB6AAF
:10236000DB781A46BB6B02FB03F3BB63BB6A93F8D3
:1023700041301A46BB6A5A81BB6A5B89002B08D080
:10238000BB6A5B891A46BB6A5B89013B1340002B21
:1023900001D00D2331E1BB6A34331133184604F008
:1023A00055FD03461A46BB6A1A81BB6A1B8903F0B6
:1023B0000F039BB2002B01D00D231EE1BB6A343307
:1023C0001333184604F042FD0346FB63FB6B002BFE
:1023D00006D1BB6A34332033184604F04FFDF8634E
:1023E000BB6A34330E33184604F030FD0346FB83DA
:1023F000FB8B002B01D10D23FFE0FA8BBB6B134449
:10240000BA6A1289120992B21344BB61FA6BBB69B2
:102410009A4201D20D23F0E0FA6BBB69D31ABA6A73
:102420005289B3FBF2F37B617B69002B01D10D2351
:10243000E3E000233B637B691F4A934201D80323F7
:102440003B637B694FF6F572934201D802233B63ED
:102450007B6940F6F572934201D801233B633B6BE5
:10246000002B01D10D23C8E07B699A1CBB6A9A61DD
:10247000BB6A3A6A1A62FA8B3B6A1A44BB6A5A62AE
:102480003A6ABB691A44BB6ADA623B6B032B23D1FD
:10249000BB6A34332A33184604F0D8FC0346002BB9
:1024A00001D00D23A9E0BB6A1B89002B06D00D23A8
:1024B000A3E000BF0C000020F5FFFF0FBB6A343320
:1024C0002C33184604F0DAFC0246BB6A9A62BB6AF7
:1024D0009B699B007B631EE0BB6A1B89002B01D1BB
:1024E0000D238AE0BB6A5A6ABB6B1A44BB6A9A62C4
:1024F0003B6B022B03D1BB6A9B695B000AE0BB6AA2
:102500009A6913465B0013445A08BB6A9B6903F03F
:10251000010313447B63BB6ADA697B6B03F2FF132D
:102520005B0A9A4201D20D2367E0BB6A4FF0FF328B
:102530001A61BB6A1A69BB6ADA60BB6A80225A7187
:102540003B6B032B47D1BB6A34333033184604F05E
:102550007DFC0346012B3ED13B6A01331946B86A24
:1025600004F077FD0346002B35D1BB6A00225A7177
:10257000BB6A3433184604F081FC0346214A934277
:1025800029D1BB6A343303F5F273184604F076FCA4
:1025900003461D4A93421ED1BB6A343303F5F973D7
:1025A000184604F06BFC0346184A934213D1BB6AE9
:1025B000343303F5F473184604F060FC0246BB6A3A
:1025C0001A61BB6A343303F5F673184604F056FCFF
:1025D0000246BB6ADA603B6BDAB2BB6A1A700C4B1C
:1025E0001B8801339AB20A4B1A80094B1A88BB6ABE
:1025F000DA80BB6A00225A61002318464037BD4684
:1026000080BD00BF5252614172724161000055AA03
:102610003008002080B588B000AFF860B96013467C
:10262000FB71BB683B6107F110031846FFF70CFD17
:10263000F861FB69002B01DA0B232EE0194AFB69D4
:1026400052F82330BB61BB69002B07D0154AFB69E8
:10265000002142F82310BB6900221A70FB68002B8E
:102660000BD0FB68FA69D2B25A70FB6800221A706C
:10267000FA680C49FB6941F82320FB79002B01D152
:1026800000230AE007F10C0107F1080300221846B5
:10269000FFF7C2FD0346FB75FB7D18462037BD469C
:1026A00080BD00BF0C00002080B598B000AFF8607E
:1026B000B9601346FB71FB68002B01D109235DE172
:1026C000FB7903F03F03FB71FA7907F1140107F17D
:1026D00008031846FFF7A0FD034687F85F3097F818
:1026E0005F30002B40F041817B69BB61BA6807F124
:1026F00018031146184605F0A3FA034687F85F3021
:1027000097F85F30002B07D197F843305BB2002B6E
:1027100002DA062387F85F30FB7903F01C03002BF5
:1027200077D097F85F30002B10D097F85F30042BEC
:1027300007D107F11803184605F032FA034687F867
:102740005F30FB7943F00803FB7110E0BB7F03F0BF
:102750001103002B03D0072387F85F3007E0FB79D4
:1027600003F00403002B02D0082387F85F3097F8AA
:102770005F30002B67D1FB7903F00803002B62D098
:10278000804B3B657B6B0E33396D184604F0B2FB12
:102790007B6B1633396D184604F0ACFB7B697A6BA2
:1027A0001146184605F00BF9F8647B6B0B332022B9
:1027B0001A707B69796B0022184605F01FF97B6B54
:1027C0001C330021184604F095FB7B6901221A7125
:1027D000FB6C002B37D07B691B6BBB6407F11803C4
:1027E0000022F96C184604F010FE034687F85F30AB
:1027F00097F85F30002B26D17B69B96C184604F03E
:1028000028FC034687F85F307B69FA6C013ADA608E
:1028100019E097F85F30002B15D1BB7F03F0100350
:10282000002B03D0042387F85F300CE0FB7903F022
:102830000203002B07D0BB7F03F00103002B02D063
:10284000072387F85F3097F85F30002B0FD1FB79B3
:1028500003F00803002B03D0FB7943F04003FB7126
:102860007B691A6BFB681A627A6BFB685A6297F88D
:102870005F30002B79D17B697A6B1146184605F0E1
:102880009EF80246FB689A607B6B1C33184604F086
:10289000F5FA0246FB68DA607A69FB681A607B69C0
:1028A000DA88FB689A80FB68FA791A74FB68002260
:1028B0005A74FB680022DA61FB6800225A61FB79D6
:1028C00003F02003002B50D0FB68DB68002B4CD0BA
:1028D000FB68DA68FB685A617B695B895B027B6431
:1028E000FB689B68BB65FB68DB687B6516E0FB6883
:1028F000B96D184604F0F8FBB865BB6D012B02D822
:10290000022387F85F30BB6DB3F1FF3F02D1012393
:1029100087F85F307A6D7B6CD31A7B6597F85F30F0
:10292000002B03D17A6D7B6C9A42E0D8FB68BA6DBC
:102930009A6197F85F30002B17D17B6DC3F30803C2
:10294000002B12D07B69B96D184604F0AFFBB86458
:10295000BB6C002B03D1022387F85F3005E07B6D51
:102960005A0ABB6C1A44FB68DA6197F85F30002B97
:1029700002D0FB6800221A6097F85F301846603773
:10298000BD4680BD0000615980B586B000AF78605B
:102990007B6807F108021146184605F03EFA034627
:1029A000FB75FB7D002B4CD17B681B7C03F0400347
:1029B000002B46D0254B3B61BA687B681B6A1946E1
:1029C000104604F046FB0346FB75FB7D002B38D117
:1029D0007B685B6AFB60FB680B331A78FB680B3320
:1029E00042F02002D2B21A707B6818687B689B683C
:1029F0001A46F96805F002F8FB6803F11C027B68CF
:102A0000DB681946104604F075FAFB68163339691D
:102A1000184604F06FFAFB6812330021184604F0E0
:102A20004FFABB6801221A71BB681846FFF796F986
:102A30000346FB757B681B7C23F04003DAB27B689E
:102A40001A74FB7D18461837BD4680BD00006159D9
:102A5000B0B58EB000AFF860C7E9002300237B63F8
:102A600000233B63002387F82F300023BB622E2313
:102A700087F82730D7E90023D7E9000106F097FD52
:102A80000346002B02D18F4BBB6247E1BB6C002B8E
:102A900001DA0623BB644FF000024FF00003D7E9D0
:102AA000000106F09CFD0346002B0FD0D7E9002360
:102AB0004FF000004FF0000103F06EFD02460B46A0
:102AC000C7E900232D2387F82F3002E02B2387F856
:102AD0002F30D7E90023D7E9000106F068FD03464F
:102AE000002B1BD0D7E90023D7E9000103F054FDE8
:102AF00002460B4614461D46D7E90023D7E90001DC
:102B000003F04AFD02460B462046294606F04FFDDB
:102B10000346002B02D16C4BBB6271E097F84C303E
:102B2000662B26D1BB6C5B421846FDF711FC4FF0BB
:102B300000024FF0804303F095FC02460B46D7E9B4
:102B4000000103F003FE02460B46C7E90023D7E964
:102B50000001FDF781FB38633B6B002B01DA00239A
:102B60003B633A6BBB6C13441C2B49DD574BBB6278
:102B700046E04FF000024FF00003D7E9000106F0F5
:102B800016FD0346002B3BD1D7E90001FDF764FB9E
:102B90000246BB6CD31A1846FDF7DAFB4FF0000271
:102BA0004FF0804303F05EFC02460B46D7E900017C
:102BB00003F0CCFD02460B46C7E90023D7E900012C
:102BC000FDF74AFB78637B6B632B02DCBB6C182B35
:102BD00002DD3E4BBB6213E07B6B13F1630F02DA45
:102BE0006FF062037B63786BFDF7B2FB02460B4626
:102BF000D7E9000103F036FC02460B46C7E9002383
:102C0000BB6A002B40F08A8097F82F302D2B05D11E
:102C1000FB685A1CFA6097F82F201A703B6BB3F1CF
:102C2000FF3F05D1FB685A1CFA6097F827201A70FD
:102C3000386BFDF78DFBC7E90601D7E90623D7E915
:102C4000000103F00FFC02460B461046194606F041
:102C500062FC03467B61786906F0A1FCD7E9062394
:102C600003F082FB02460B46D7E9000103F094FC17
:102C700002460B46C7E900237B69DAB2FB68591CA0
:102C8000F9603032D2B21A703B6B013B3B63BB6CD4
:102C90005B423A6B9A42C1DA97F84C30662B3DD0D2
:102CA000FB685A1CFA6097F84C201A707B6B002B5B
:102CB0000EDA7B6B5B427B63FB685A1CFA602D2249
:102CC0001A700AE0F4980000F8980000FC980000E0
:102CD000FB685A1CFA602B221A707B6B1F4A82FB1E
:102CE00003129210DB17D31ADAB2FB68591CF96091
:102CF0003032D2B21A707A6B184B83FB02139910E0
:102D0000D317C91A0B469B000B445B00D11ACAB2F9
:102D1000FB68591CF9603032D2B21A70BB6A002BC2
:102D200015D097F82F30002B05D0FB685A1CFA609D
:102D300097F82F201A70BA6A531CBB62FB68591CA3
:102D4000F96012781A70BB6A1B78002BF3D1FB680C
:102D500000221A7000BF3837BD46B0BD6766666690
:102D60000EB42DE9F04FB0B002AF7861002387F8C0
:102D70003F3007F140037969184605F01CFD07F163
:102D8000E003C7F88C30D7F8DC305A1CC7F8DC20D9
:102D90001B7887F8933097F89330002B00F051831D
:102DA00097F89330252B08D097F8932007F140032C
:102DB0001146184605F0A2FC42E30023C7F8AC30E8
:102DC000D7F8AC30C7F8A830202387F892304FF0FE
:102DD000FF33C7F8A030D7F8DC305A1CC7F8DC2026
:102DE0001B7887F8933097F89330302B0BD1302332
:102DF00087F89230D7F8DC305A1CC7F8DC201B78F3
:102E000087F893300EE097F893302D2B0AD10223E8
:102E1000C7F8A830D7F8DC305A1CC7F8DC201B787C
:102E200087F8933097F893302A2B25D1D7F88C3038
:102E30001A1DC7F88C201B68C7F8AC30D7F8DC30F7
:102E40005A1CC7F8DC201B7887F893301CE0D7F8B1
:102E5000AC2013469B0013445B001A4697F893304E
:102E60001344303BC7F8AC30D7F8DC305A1CC7F8F5
:102E7000DC201B7887F8933097F893302F2B03D9F9
:102E800097F89330392BE2D997F893302E2B3DD118
:102E9000D7F8DC305A1CC7F8DC201B7887F8933051
:102EA00097F893302A2B10D1D7F88C301A1DC7F819
:102EB0008C201B68C7F8A030D7F8DC305A1CC7F844
:102EC000DC201B7887F8933020E00023C7F8A0307F
:102ED00014E0D7F8A02013469B0013445B001A4669
:102EE00097F893301344303BC7F8A030D7F8DC3064
:102EF0005A1CC7F8DC201B7887F8933097F893307A
:102F00002F2B03D997F89330392BE2D997F89330C8
:102F10006C2B1FD1D7F8A83043F00403C7F8A830B2
:102F2000D7F8DC305A1CC7F8DC201B7887F89330C0
:102F300097F893306C2B0DD1D7F8A83043F00803E5
:102F4000C7F8A830D7F8DC305A1CC7F8DC201B784B
:102F500087F8933097F89330002B00F0748297F83D
:102F60009330453B332B00F2638101A252F823F0EA
:102F70006331000031320000313200003132000094
:102F800031320000313200003132000031320000B5
:102F900031320000313200003132000031320000A5
:102FA0003132000031320000313200003132000095
:102FB000313200003132000031320000593000005F
:102FC0003132000031320000313200003132000075
:102FD0003132000031320000313200003132000065
:102FE00031320000413000006130000051300000FB
:102FF00063310000633100003132000031320000E3
:103000003132000031320000313200003132000034
:10301000313200003132000049300000313200000E
:1030200031320000313200007D30000031320000CA
:1030300051300000313200003132000059300000C0
:103040000223C7F8A430FCE00823C7F8A430F8E056
:103050000A23C7F8A430F4E01023C7F8A430F0E046
:10306000D7F88C301A1DC7F88C201B68DAB207F12C
:1030700040031146184605F041FBE1E1D7F88C30DA
:103080001A1DC7F88C201B68C7F89430D7F8943005
:10309000002B03D107F13F03C7F894300023C7F892
:1030A000B03004E0D7F8B0300133C7F8B030D7F80B
:1030B0009420D7F8B03013441B78002BF2D1D7F806
:1030C000A030002B17DBD7F8A030D7F8B0209A42F9
:1030D00011D9D7F8A030C7F8B0300CE097F892209B
:1030E00007F140031146184605F008FBD7F8B03049
:1030F0000133C7F8B030D7F8A83003F00203002B33
:1031000012D1D7F8B020D7F8AC309A42E6D30BE012
:10311000D7F894305A1CC7F894201A7807F1400366
:103120001146184605F0EAFAD7F894301B78002BC0
:103130000DD0D7F8A0305A1EC7F8A020002BE7D139
:1031400005E007F140032021184605F0D7FAD7F82B
:10315000B0305A1CC7F8B020D7F8AC209A42F0D84B
:103160006EE1D7F88C30073323F0070303F1080230
:10317000C7F88C20D3E9000107F11C0497F89330BD
:103180000193D7F8A030009302460B462046FFF784
:103190005FFC07F11C03184605F0B8FEC7F8B00045
:1031A0000CE097F8922007F140031146184605F00D
:1031B000A5FAD7F8B0300133C7F8B030D7F8A83047
:1031C00003F00203002B05D1D7F8B020D7F8AC30BC
:1031D0009A42E6D30023C7F8B43010E0D7F8B430F1
:1031E0005A1CC7F8B420A83307F11002134413F88F
:1031F0009C2C07F140031146184605F07FFA07F1B1
:103200001C02D7F8B43013441B78002BE6D105E03C
:1032100007F140032021184605F070FAD7F8B030C6
:103220005A1CC7F8B020D7F8AC209A42F0D807E172
:1032300097F8932007F140031146184605F05EFA0F
:10324000FEE0D7F8A83003F00803002B0DD0D7F824
:103250008C30073323F0070303F10802C7F88C20F2
:10326000D3E90023C7E9262338E0D7F8A83003F0D4
:103270000403002B19D097F89330642B09D1D7F8A9
:103280008C301A1DC7F88C201B68DA179A469346B3
:1032900008E0D7F88C301A1DC7F88C201B68002274
:1032A0009A469346C7E926AB18E097F89330642B0B
:1032B00009D1D7F88C301A1DC7F88C201B68DA1793
:1032C0001D46164608E0D7F88C301A1DC7F88C202A
:1032D0001B6800221D461646C7E9265697F893300C
:1032E000642B12D1D7E92623002B0EDAD7E9262347
:1032F0000021D2F1000861EB0309C7E92689D7F85C
:10330000A83043F00103C7F8A8300023C7F8B43051
:10331000D7F8A4300022BB60FA60D7E92601D7E9CC
:10332000022306F03DF8D3B2303387F89130D7F856
:10333000A43000223B607A60D7E90023D7E9260158
:1033400006F02EF802460B46C7E9262397F891307F
:10335000392B0BD997F89330782B01D1272200E035
:10336000072297F89130134487F89130D7F8B4309A
:103370005A1CC7F8B420A83307F11002134497F879
:10338000912003F89C2CD7E92623134303D0D7F8C8
:10339000B4301F2BBCD9D7F8A83003F00103002BA1
:1033A0000BD0D7F8B4305A1CC7F8B420A83307F1B3
:1033B000100213442D2203F89C2CD7F8B430C7F820
:1033C000B0300CE097F8922007F140031146184600
:1033D00005F094F9D7F8B0300133C7F8B030D7F81A
:1033E000A83003F00203002B05D1D7F8B020D7F89E
:1033F000AC309A42E6D3D7F8B430013BC7F8B430CA
:1034000007F11C02D7F8B43013441A7807F14003CF
:103410001146184605F072F9D7F8B430002BEAD1FE
:1034200005E007F140032021184605F067F9D7F8B9
:10343000B0305A1CC7F8B020D7F8AC209A42F0D868
:10344000A1E400BF00E000BF07F14003184605F00B
:103450008DF903461846B837BD46BDE8F04F03B0B6
:10346000704700BF80B485B000AF786039607B687A
:103470005A1C7A601B78FB7397F90F30002B06DA21
:103480007B4B1B6C7A4A43F40053136405E0784B82
:103490009B6C774A43F400539364754B1B6C744ADE
:1034A00043F480531364724B9B6C714A43F4805312
:1034B0009364FB7B03F04003002B06D06C4B1B6C2A
:1034C0006B4A43F40053136405E0694B9B6C684AF4
:1034D00043F400539364664B1B6C654A43F480537A
:1034E0001364634B9B6C624A43F480539364FB7B8D
:1034F00003F02003002B06D05D4B1B6C5C4A43F4A9
:103500000053136405E05A4B9B6C594A43F4005333
:103510009364574B1B6C564A43F480531364544BCB
:103520009B6C534A43F480539364FB7B03F010037A
:10353000002B06D04E4B1B6C4D4A43F400531364D2
:1035400005E04B4B9B6C4A4A43F400539364484B51
:103550001B6C474A43F480531364454B9B6C444AAD
:1035600043F480539364FB7B03F00803002B06D0E5
:103570003F4B1B6C3E4A43F40053136405E03C4B45
:103580009B6C3B4A43F400539364394B1B6C384AA1
:1035900043F480531364364B9B6C354A43F4805399
:1035A0009364FB7B03F00403002B06D0304B1B6CB1
:1035B0002F4A43F40053136405E02D4B9B6C2C4AB7
:1035C00043F4005393642A4B1B6C294A43F4805301
:1035D0001364274B9B6C264A43F480539364FB7B14
:1035E00003F00203002B06D0214B1B6C204A43F44E
:1035F0000053136405E01E4B9B6C1D4A43F40053BB
:1036000093641B4B1B6C1A4A43F480531364184B8E
:103610009B6C174A43F480539364FB7B03F00103D4
:10362000002B06D0124B1B6C114A43F40053136459
:1036300005E00F4B9B6C0E4A43F4005393640C4B14
:103640001B6C0B4A43F480531364094B9B6C084A70
:1036500043F4805393643B68013B3B603B68002B21
:103660007FF405AF00BF00BF1437BD4680BC704774
:103670000040104080B485B000AF786039606B4B7B
:103680001B6C6A4A43F4005313640023FB73674BBB
:103690001B6D03F48033002B02D0FB7B0133FB73E3
:1036A000624B1B6C614A43F4805313645F4B9B6C09
:1036B0005E4A43F480539364FB7B5B00FB735B4B7C
:1036C0001B6D03F48033002B02D0FB7B0133FB73B3
:1036D000564B1B6C554A43F480531364534B9B6CFD
:1036E000524A43F480539364FB7B5B00FB734F4B64
:1036F0001B6D03F48033002B02D0FB7B0133FB7383
:103700004A4B1B6C494A43F480531364474B9B6CF0
:10371000464A43F480539364FB7B5B00FB73434B4B
:103720001B6D03F48033002B02D0FB7B0133FB7352
:103730003E4B1B6C3D4A43F4805313643B4B9B6CE4
:103740003A4A43F480539364FB7B5B00FB73374B33
:103750001B6D03F48033002B02D0FB7B0133FB7322
:10376000324B1B6C314A43F4805313642F4B9B6CD8
:103770002E4A43F480539364FB7B5B00FB732B4B1B
:103780001B6D03F48033002B02D0FB7B0133FB73F2
:10379000264B1B6C254A43F480531364234B9B6CCC
:1037A000224A43F480539364FB7B5B00FB731F4B03
:1037B0001B6D03F48033002B02D0FB7B0133FB73C2
:1037C0001A4B1B6C194A43F480531364174B9B6CC0
:1037D000164A43F480539364FB7B5B00FB73134BEB
:1037E0001B6D03F48033002B02D0FB7B0133FB7392
:1037F0000E4B1B6C0D4A43F4805313640B4B9B6CB4
:103800000A4A43F4805393647B685A1C7A60FA7BBB
:103810001A703B68013B3B603B68002B7FF435AF7F
:1038200000BF00BF1437BD4680BC70470040104049
:1038300080B582B000AF074B1B6C064A43F04003D3
:103840001364FB1D01211846FFF714FF00BF083762
:10385000BD4680BD0040104080B582B000AF0C4B2B
:103860009B6C0B4A43F040039364FB1D01211846F7
:10387000FFF700FF04F0C9FF0346002B01D001232E
:1038800002E0FFF7D5FF002318460837BD4680BD8C
:103890000040104080B483B000AF0346FB71FB7959
:1038A000002B01D0012301E0034B1B7818460C3795
:1038B000BD4680BC704700BF0800002080B586B0C0
:1038C00000AF0346FB71FB79002B01D00323F8E026
:1038D00042F2107004F080FF7C4B4FF000425A64BB
:1038E0007A4B80225A65794B4FF000425A60774BF1
:1038F00080225A61764B4FF40042C3F89820754BF2
:103900001B6C744A43F040031364724B5B6D714A45
:1039100043F0400353656F4B1B6C6E4A43F040030A
:1039200013646B4B4FF40042C3F8B020694B9B6C9F
:10393000684A43F480539364664B5B6D654A43F475
:1039400080535365634B9B6C624A43F4805393648A
:103950005F4B4FF40042C3F8B4205E4B1B6C5D4AD2
:1039600043F4005313645B4B5B6D5A4A43F40053BA
:103970005365574B4FF41042C3F8C0200A23FB7520
:1039800008E007F1080301211846FFF773FEFB7DED
:10399000013BFB75FB7D002BF3D10023BB750021A0
:1039A000002004F0BCFF0346012B7AD14FF4D571FF
:1039B000082004F0B4FF0346012B3DD107F10803B2
:1039C00004211846FFF756FEBB7A012B69D1FB7A1A
:1039D000AA2B66D14FF47A733B610EE04FF0804121
:1039E000A92004F09CFF0346002B0AD04FF47A7004
:1039F00004F0F2FE3B69013B3B613B69002BEDD1DA
:103A000000E000BF3B69002B4BD000213A2004F0BE
:103A100086FF0346002B44D107F108030421184612
:103A2000FFF728FE3B7A03F04003002B01D0182358
:103A300000E00823BB7534E00021A92004F06FFFEB
:103A40000346012B04D80823BB75A9237B7503E02B
:103A50000123BB7501237B754FF47A733B610EE044
:103A60007B7D0021184604F05AFF0346002B0AD044
:103A70004FF47A7004F0B0FE3B69013B3B613B6957
:103A8000002BEDD100E000BF3B69002B07D04FF4C5
:103A90000071102004F043FF0346002B01D00023E7
:103AA000BB750D4ABB7D1370BB7D002B0CBF012382
:103AB0000023DBB2FB73094AFB7B1370FFF7B8FEF0
:103AC000FB7B18461837BD4680BD00BF001009407B
:103AD00000E00B40004010403308002008000020A8
:103AE00080B586B000AFB9607A603B600346FB7377
:103AF0007B687B61FB7B1846FFF7CCFE034603F037
:103B00000103002B01D003233AE01F4B1B7803F085
:103B10001003002B02D17B695B027B613B68012BA8
:103B200001D9122300E01123FB74FB7C796918464C
:103B300004F0F5FE0346002B1AD14FF40071B8686B
:103B400004F087FE0346002B0AD0BB6803F5007320
:103B5000BB603B68013B3B603B68002BEDD100E064
:103B600000BFFB7C122B03D100210C2004F0D7FEF8
:103B7000FFF75EFE3B68002B14BF01230023DBB27E
:103B800018461837BD4680BD3308002080B586B082
:103B900000AFB9607A603B600346FB737B687B6172
:103BA000FB7B1846FFF776FE034603F00103002B6C
:103BB00001D0032351E02B4B1B7803F01003002BA3
:103BC00002D17B695B027B613B68012B10D1796973
:103BD000182004F0A4FE0346002B36D1FE21B8685D
:103BE00004F068FE0346002B2FD000233B602CE03E
:103BF0001C4B1B7803F00C03002B03D03968972073
:103C000004F08DFE7969192004F089FE0346002B2B
:103C10001BD1FC21B86804F04DFE0346002B0AD0EE
:103C2000BB6803F50073BB603B68013B3B603B68CE
:103C3000002BEED100E000BFFD21002004F03AFE91
:103C40000346002B01D101233B60FFF7F1FD3B68E8
:103C5000002B14BF01230023DBB218461837BD46E2
:103C600080BD00BF3308002080B500AF00220C49A2
:103C70000C48FEF7CFFC03461A460B4B1A700B4854
:103C800004F088FC084B1B78002B06D0064B1B78F1
:103C90001946074801F028F9FEE700BF80BD00BFC4
:103CA0002C9900001000002034080020009900002A
:103CB0000C9900002DE9F0438FB008AF786107F14F
:103CC000080080E80E00322223492448FEF7ECFC6D
:103CD00003461A46224B1A70214B1B78002B36D113
:103CE0001E4BDB6819461D4804F056FB03461A4676
:103CF0001B4B1A701A4B1B78002B21D1FB681846FE
:103D000002F05EFF804689467B7C1E46BB681846F3
:103D100002F056FF04460D463B7C7B60786902F05A
:103D20004FFF02460B46CDE906237B680493CDE99D
:103D30000245009642464B460A490848FFF710F8EC
:103D4000064804F009FB03461A46054B1A7000BFEB
:103D50001C37BD46BDE8F0833099000044020020C6
:103D6000340800204099000080B584B000AF0122E3
:103D700024492548FEF798FC03461A46234B1A703F
:103D8000214BDB685B0A7B607B6801337B60796871
:103D90001F4801F0A9F81D4B1B78002B2ED10023E2
:103DA000FB6021E01B4B40F2FF121B49164804F058
:103DB00069F80023BB600AE0174ABB6813441B780C
:103DC0001946164801F090F8BB680133BB60BA6829
:103DD000104B1B689A42EFD30E4B1B68B3F5007F64
:103DE000E0D0FB680133FB60FA687B689A42D9DB5C
:103DF0000B4801F079F8044804F0AEFA00BF103720
:103E0000BD4680BD309900004402002034080020E7
:103E1000589900006C020020700200205C9900009C
:103E20006099000080B500AF114B124A1A60104B28
:103E3000114A5A600E4B45221A720D4B4E225A728D
:103E40004FF4165000F05AFB4FF4165000F01AFAD7
:103E50000A4801F049F80A490A4801F045F80A4AB7
:103E60000A490B4801F040F800BF184680BD00BF6A
:103E7000F0040020D34DDC40A5AC4D426499000015
:103E800078990000809900008899000094990000BA
:103E9000A099000090B58DB002AF79E000F090FBE2
:103EA0000346DBB2FB71FB1D012219463D4805F0BC
:103EB00054F8FB790A2B6BD106223B49394805F0AF
:103EC00060F80346002B60D1384801F00DF83849FE
:103ED000344800F07DF8364B1B68184602F070FE3F
:103EE00002460B46334800F0FFFF314B1B7A194660
:103EF000314800F0F9FF2E4B5B68184602F060FE77
:103F000002460B462D4800F0EFFF294B5B7A19461D
:103F10002B4800F0E9FF07F10803184600F02EF9DE
:103F2000284B6C461A1D92E8030084E803001B68C6
:103F300007F1080207CA00F0DDFB7862786A02F038
:103F40003FFE02460B46204800F0CEFF07F1140367
:103F5000184600F013F91B4B6C461A1D92E803003B
:103F600084E803001B6807F1140207CA00F0B8FCDC
:103F70003862386A02F024FE02460B46134800F00D
:103F8000B3FF084B00221A7002E0064B00221A70A1
:103F900000F02EFB0346002B80D100BF00BF2C3762
:103FA000BD4690BD70040020B0990000B899000093
:103FB000FC040020C0990000CC990000DC990000AE
:103FC000E8990000F0040020F8990000009A000031
:103FD00080B58AB000AF786039607B68FB600023F1
:103FE000BB6141E0BB69023B052B34D801A252F80A
:103FF00023F000BF0D400000254000002D400000D0
:1040000045400000574000004D400000786901F035
:1040100025FF02460B461046194602F023FC0346D4
:104020003B6218E07B691B78FB7714E0786901F04C
:1040300015FF02460B461046194602F013FC0346D4
:104040007B6208E07B691B78BB7704E0786901F04C
:104050000FFF386100BFBB690133BB613B1D2049C5
:10406000184604F054FD786107F10C031C4918460A
:1040700004F04DFD78617B69002BB3D14FF0000156
:10408000386A05F08EFB0346002B00D024E04FF089
:104090000001786A05F085FB0346002B00D01BE089
:1040A000FB7F002B18D0BB7F002B15D0BB7F1946A0
:1040B000786A00F017F802463B681A60FB7F1946E1
:1040C000386A00F00FF802463B685A603B68BA7FD6
:1040D0001A723B68FA7F5A7200BF2837BD4680BD0E
:1040E000149A0000B0B586B000AF78600B46FB7044
:1040F0002049786802F038FC0346184605F01CFB9E
:1041000003463B613B69642202FB03F3184605F05A
:1041100040FB03461946786802F084FC0346FB60C6
:10412000386905F03CFA04460D46F86802F048FD8F
:104130004FF00002104B02F095F902460B46204664
:10414000294602F003FB02460B461046194602F0D0
:1041500089FB03467B61FB78532B02D0FB78572BFE
:1041600003D17B6983F000437B617B691846183774
:10417000BD46B0BD0000C84200004E4080B483B0D0
:1041800000AF78607B68044A07CA83E80700786854
:104190000C37BD4680BC7047FC04002080B483B05F
:1041A00000AF78607B68044A07CA83E80700786834
:1041B0000C37BD4680BC7047F004002080B483B04B
:1041C00000AF0346FB7197F90730002B0BDBFB793F
:1041D00003F01F02064997F907305B09012000FA36
:1041E00002F241F8232000BF0C37BD4680BC704767
:1041F00000E100E080B483B000AF0346FB7197F9A3
:104200000730002B0CDBFB7903F01F02074997F9FD
:1042100007305B09012000FA02F2603341F82320E5
:1042200000BF0C37BD4680BC704700BF00E100E016
:1042300080B483B000AF03463960FB7197F9073053
:10424000002B0ADB3B68DAB20C4997F907305201C0
:10425000D2B20B4483F800230AE03B68DAB2084983
:10426000FB7903F00F03043B5201D2B20B441A76E0
:1042700000BF0C37BD4680BC704700BF00E100E0C6
:1042800000ED00E080B582B000AF78608022264962
:10429000264804F0AAFC80222549264804F0A5FC03
:1042A000254B0222C3F8E020234B0022C3F8E42070
:1042B000214B4FF400225A641F4B4FF000525A64B6
:1042C0001D4B4FF400225A601B4B4FF000525A60B6
:1042D0001A4B4FF41242C3F88820184B4FF4024295
:1042E000C3F88C207B681B01154AB2FBF3F3C3F3C0
:1042F0000C03144A43F070631361124B9B69114A1B
:1043000043F43013936103211F20FFF791FF1F2017
:10431000FFF770FF1F20FFF751FF62B600BF00BF1D
:104320000837BD4680BD00BF3805002008050020C5
:10433000B8050020200500200010094000C00B40F7
:10434000006CDC0200F0094080B582B000AF7860FC
:1043500000BF7B68DBB21946094804F06BFC0346DA
:1043600083F00103DBB2002BF3D1064B9B69054AB6
:1043700043F40003936100BF0837BD4680BD00BF12
:104380000805002000F0094080B582B000AF00238E
:10439000FB7100BFFB1D1946064804F080FC034674
:1043A00083F00103DBB2002BF4D1FB791846083708
:1043B000BD4680BD2005002080B582B000AF1F2023
:1043C000FFF718FF184B5B6903F40003002B11D0B3
:1043D000FB1D1946154804F062FC0346002B03D070
:1043E000FA79114BDA6105E00F4B9B690E4A23F411
:1043F000000393610C4B5B6903F40013002B0FD097
:10440000094BDB69DBB2FB71FB791946084804F004
:1044100011FC034683F00103DBB2002B00D0FEE762
:1044200000BF0837BD4680BD00F0094008050020E8
:104430002005002080B483B000AF0346FB7197F9DC
:104440000730002B0BDBFB7903F01F02064997F9BD
:1044500007305B09012000FA02F241F8232000BF77
:104460000C37BD4680BC704700E100E080B483B0EB
:1044700000AF0346FB7197F90730002B0CDBFB798B
:1044800003F01F02074997F907305B09012000FA82
:1044900002F2603341F8232000BF0C37BD4680BCD8
:1044A000704700BF00E100E080B483B000AF034676
:1044B0003960FB7197F90730002B0ADB3B68DAB2F1
:1044C0000C4997F907305201D2B20B4483F800230C
:1044D0000AE03B68DAB20849FB7903F00F03043BBA
:1044E0005201D2B20B441A7600BF0C37BD4680BCD5
:1044F000704700BF00E100E000ED00E080B582B051
:1045000000AF786080222649264804F06EFB8022A6
:104510002549264804F069FB254B0222C3F8F02008
:10452000234B0022C3F8F420214B4FF400125A64AD
:104530001F4B4FF080425A641D4B4FF400125A60DB
:104540001B4B4FF080425A601A4B4FF41342C3F892
:104550009020184B4FF40342C3F894207B681B0152
:10456000154AB2FBF3F3C3F30C03144A43F0706330
:104570001361124B9B69114A43F430139361032179
:104580002120FFF791FF2120FFF770FF2120FFF787
:1045900051FF62B600BF00BF0837BD4680BD00BFF7
:1045A0006806002038060020E8060020500600209B
:1045B0000010094000D00B40006CDC0200100A40E3
:1045C00080B582B000AF0023FB7100BFFB1D194610
:1045D000064804F064FB034683F00103DBB2002BC2
:1045E000F4D1FB7918460837BD4680BD500600203F
:1045F00080B500AF024804F085FB0346184680BD35
:104600005006002080B582B000AF2120FFF72EFFBA
:10461000184B5B6903F40003002B11D0FB1D1946F6
:10462000154804F03CFB0346002B03D0FA79114BEC
:10463000DA6105E00F4B9B690E4A23F40003936196
:104640000C4B5B6903F40013002B0FD0094BDB69A3
:10465000DBB2FB71FB791946084804F0EBFA03461C
:1046600083F00103DBB2002B00D0FEE700BF083768
:10467000BD4680BD00100A403806002050060020CC
:1046800080B400AF184B01225A65174B4FF480726B
:104690005A65154B01225A61134B4FF480725A61CF
:1046A000124B4FF40042C3F8B420104B4FF40042B9
:1046B000C3F8B0200D4B4FF40042C3F880200C4BE0
:1046C0001B6C0B4A43F4405343F001031364084B43
:1046D0005B6D074A43F4405343F00103536500BF49
:1046E000BD4680BC704700BF0010094000F00B4081
:1046F0000050104082B02DE9B0438AB000AF3C1D9D
:1047000084E807007B64BB6CBA681146184602F067
:1047100089F90346184600F0CDF978627B6C7A6817
:104720001146184602F07EF90346184600F0C2F919
:1047300038624FF08041786A02F016F90346184655
:1047400002F03EFA02460B461046194604F0B6FB4C
:1047500004460D464FF08041786A02F005F90346A1
:10476000184602F02DFA02460B461046194604F090
:10477000A5FB02460B462046294601F0F5FD024600
:104780000B4690469946BB68184600F093F90346DD
:10479000184602F015FA02460B4610461946FBF77A
:1047A000C3FE04460D46BB6C184600F083F9034671
:1047B000184602F005FA02460B4610461946FBF76A
:1047C000B3FE02460B462046294601F0CDFD0246C7
:1047D0000B4614461D464FF08041386A02F0C4F87B
:1047E0000346184602F0ECF902460B4610461946FD
:1047F00004F064FB02460B462046294601F0B4FD56
:1048000002460B4614461D464FF08041386A02F0BE
:10481000ABF80346184602F0D3F902460B461046A1
:10482000194604F04BFB02460B462046294601F090
:104830009BFD02460B464046494601F087FF024673
:104840000B461046194602F00DF80346FB61F86965
:1048500002F0B6F902460B4610461946FCF7ECFF8B
:1048600004460D46F9694FF07E5002F0DBF803462E
:10487000184602F0A5F902460B4610461946FCF709
:10488000DBFF02460B4620462946FBF7C5FD0246E4
:104890000B4601F05BFF02460B461046194601F03D
:1048A000E1FF0346BB610C49B86902F007F8034613
:1048B0007B610A49786904F083FF0346002B02D02C
:1048C000012000F0E7F87B6918462837BD46BDE8AF
:1048D000B04302B0704700BF706DC24A0000204173
:1048E00082B02DE9B0438CB000AF3C1D84E80700D6
:1048F000FB64BB68184600F0DDF8B8627B681846B8
:1049000000F0D8F878623B6D184600F0D3F83862B2
:10491000FB6C184600F0CEF8F861796AF86902F08D
:1049200081F80346BB61B86902F04AF902460B46BA
:104930001046194604F0C2FA04460D46386A02F0E1
:104940003FF902460B4610461946FBF7EDFD0246BD
:104950000B462046294601F007FD02460B4610464D
:10496000194601F07FFF03467B61B86A02F028F91F
:1049700002460B4610461946FBF7D6FD04460D4687
:10498000386A02F01DF902460B461046194604F03B
:1049900095FA02460B462046294601F0E5FC024600
:1049A0000B4690469946B86A02F00AF902460B4651
:1049B0001046194604F082FA04460D46386A02F0A1
:1049C000FFF802460B4610461946FBF7ADFD0246BE
:1049D0000B462046294601F0C7FC02460B4614460A
:1049E0001D46B86902F0ECF802460B46104619461F
:1049F000FBF79AFD02460B462046294601F0B4FC1F
:104A000002460B464046494601F0C6FD02460B46AB
:104A10001046194601F026FF03463B61786902F013
:104A2000CFF804460D46386902F0CAF802460B4634
:104A300020462946FBF7F0FC02460B461046194675
:104A400001F010FF0346FB62F86A00F05BF8F862C1
:104A50004FF00001F86A04F0B3FE0346002B05D0C6
:104A60000649F86A02F050F80346FB62FB6A1846F2
:104A70003037BD46BDE8B04302B070470000B443D4
:104A800080B400AF024B1846BD4680BC704700BFE3
:104A90003508002080B483B000AF0346FB71044AA0
:104AA000FB79137000BF0C37BD4680BC704700BF58
:104AB00035080020B0B582B000AF7860786802F0A9
:104AC0007FF804460D460D4B184602F079F84FF07A
:104AD00000020B4B01F0C6FC02460B46204629465D
:104AE00001F042FC02460B461046194601F0BAFEA0
:104AF000034618460837BD46B0BD00BFDB0F49402E
:104B000000806640B0B582B000AF7860786802F08F
:104B100057F804460D460E4B184602F051F802466F
:104B20000B464FF000000B4901F09CFC02460B467F
:104B30002046294601F018FC02460B46104619464D
:104B400001F090FE034618460837BD46B0BD00BFD1
:104B5000DB0F49400080664080B483B000AF03465D
:104B60003960FB7197F90730002B0ADB3B68DAB23A
:104B70000C4997F907305201D2B20B4483F8002355
:104B80000AE03B68DAB20849FB7903F00F03043B03
:104B90005201D2B20B441A7600BF0C37BD4680BC1E
:104BA000704700BF00E100E000ED00E080B582B09A
:104BB00000AF78607B68013BB3F1807F01D30123B4
:104BC0000FE00A4A7B68013B536007214FF0FF303A
:104BD000FFF7C2FF054B00229A60044B07221A60C0
:104BE000002318460837BD4680BD00BF10E000E036
:104BF00080B582B000AF01233B60FFF741FDFFF7B6
:104C000011F900237B604BF68030FFF7CFFF0721BF
:104C10004FF0FF30FFF7A0FF62B600BFFFF724F8A8
:104C2000FFF738F9FFF72CFF0346002B02D07B6813
:104C300001337B607B68042B0CD801A252F823F06F
:104C4000554C0000554C0000554C0000554C0000E0
:104C5000554C0000044B1B68012BE1D1FFF784F891
:104C6000014B00221A60DBE76C07002080B584B09E
:104C700000AF1B4B1B680133194A1360184B1A68AD
:104C8000184B83FB02139911D317CB1A4FF47A7187
:104C900001FB03F3D31A002B0CD1134B1B68002B21
:104CA00008D13B1D1846FFF779FA3B1D0ECB0F4884
:104CB000FFF700F80A4B1A680D4B83FB0213D91259
:104CC000D317CB1A41F2883101FB03F3D31A002B1F
:104CD00002D1054B01221A6000BF1037BD4680BDCE
:104CE00068070020D34D62106C070020000040418F
:104CF000AD8BDB6880B582B000AF3B4BD3F888301A
:104D0000394A43F00F03C2F88830374BD3F88C3060
:104D1000354A43F4406343F00303C2F88C30324B0E
:104D2000324A9A60324BD3F82438314A43F48073C4
:104D3000C2F824382E4BD3F824382D4A23F001032F
:104D4000C2F824384FF080731B68B3F1FF3F0FD0D7
:104D50004FF080731B68274A934237D1264B1B685C
:104D6000B3F1FF3F32D1254B1B68B3F1FF3F2DD18B
:104D7000234B4FF4C0221A60214B224A1A60204B69
:104D8000214A1A601E4B4FF424125A601C4B1D4AD4
:104D90001A601B4B4FF420125A60194B0F221A60F5
:104DA0001A4B4FF4EE421A620023FB7108E0174AD7
:104DB000FB791033002142F82310FB790133FB719A
:104DC000FB79012BF3D90E4B0E4A1A60104BD3F826
:104DD00000330F4A43F08073C2F8003303F0B8FF8A
:104DE00000BF0837BD4680BD00ED00E000000000B8
:104DF0000010094000006359400000014400000118
:104E0000001D09400F0002000F00010000E00840F3
:104E1000000009400EB430B594B017AB53F8045BF2
:104E200004463C22002105A8049303F0A0FF0A23B6
:104E300008936FF000430793104B4FF0FF3202933B
:104E4000049B05A8CDE900536FF00043059400F0E2
:104E5000B1F8079B0446013B002B079308DB0022B7
:104E6000059B1A70204614B0BDE8304003B070476F
:104E700005A9002004F009F9F4E700BF8905000046
:104E8000F0B50C4616461F46054695B010B931BB25
:104E9000012404AD3C22002105A803F068FF0A2389
:104EA00008936FF000430595002507930D4B621E94
:104EB000CDE9017300962B4605A800F07BF8079A10
:104EC0000446013AAA42079204DB059B1D70204666
:104ED00015B0F0BD284605A904F0D7F8F7E74FF064
:104EE000FF34F4E7890500000FB473B506AB53F83F
:104EF000046B0121324668460193FFF7C1FF041E8F
:104F000013DD651C284601F0D5F8009068B13246E3
:104F10002946019BFFF7B4FF074B22460099186D05
:104F200003F031FE009804F0CDF9204602B0BDE850
:104F3000704004B0704700BF7C07002010B5174ACE
:104F40001749002004F034F94FF480734FF4806265
:104F50000021124803F093FF124A1349012004F084
:104F600027F94FF480734FF4806200210D4803F05D
:104F700086FF0E4B1B68022B0EDD0D4A0A490220EC
:104F800004F016F9BDE810404FF480734FF48062CE
:104F90000021074803F073BF10BD00BF7C0700204D
:104FA000509A0000B8070020529A0000189A00009A
:104FB000F40700202DE9F04F06464FF000089DB0A1
:104FC000CDE90823279DDDF8989019F8010B18B951
:104FD00040461DB0BDE8F08F252819D0089A4FEA49
:104FE000E8739045099A934104DB08F10108CDF874
:104FF0009890E8E7B368013B002BB36004DB3368AB
:105000005A1C32601870F0E7314604F03EF8ECE7C5
:10501000002416E02D2F10D0302F50D04FF0000A72
:105020000A22A7F13003D9B2092925D802FB0A3A8E
:10503000049B13F8017B0493F3E744F00104DDF8CB
:1050400010904B4613F8017B2B2F04932ED0E1D800
:10505000202F2ED0232F2FD02A2FDFD1049B55F8BD
:1050600004AB1F78BAF1000F09F10203BCBFCAF10B
:10507000000A84F0010404932AEAEA732E2F0593B0
:1050800053D1049B1F782A2F1CD04FF0000B0A220B
:1050900001330493A7F13003D9B2092918D802FBD0
:1050A0000B3B049B13F8017B0493F3E744F00204E9
:1050B000C5E744F00404C2E744F00804BFE744F441
:1050C0000074BCE7049B55F804BB5F78023304937B
:1050D000BBF1000F29DB44F010046C2F0ED1049BB0
:1050E0001F786C2F15BF049B5F780133023307BF15
:1050F00044F060040493049344F02004712F46D0DC
:1051000016DC682F4AD06A2F00F0A5804C2F3ED0C5
:10511000572F15DC412F00F0A68200F3A280002F4C
:105120004CD1049B013B049392E04FF0000BD4E779
:10513000742F00F092807A2F00F08F80782F3DDC62
:10514000A7F15803202B39D8DFE813F0900138007D
:1051500038003800380038003800380038008D0238
:105160003800A2005E028F008F008F0038005E02C0
:105170003800380038003800DE001102D80138004D
:105180003800F8003800300238003800B401049BC1
:1051900044F0600413F8017B04930DE0049B1F7836
:1051A000682F04D15F7844F480740233F4E7049BE1
:1051B00044F0800401330493782FA9DD059B03F1AB
:1051C000FF3914F0010306931DD114F4007F0CBFC6
:1051D0004FF0200B4FF0300B44464FEAE873B9F123
:1051E000010958D5059B059A012BB8BF0123BAF1D7
:1051F000000FC2F10109D8BF4FF00009013B9844EC
:10520000059B023B9944089A4FEAE8739045099A36
:1052100008F1010A934108DAB368013B002BB3603F
:1052200054DB33685A1C32601F70069B002B00F061
:10523000758454464F464FF0200B4FEAEA78013F01
:1052400049D5B9F1000FACBF0AEB09080AF1000813
:10525000DDF81090CBE644F04004049B13F8017B8A
:105260009AE727F00203452BA8D1073525F007055B
:10527000F5E80223CDE91223002314F0100F08BF34
:105280004FF0060B1A461946184644F480643AE17A
:1052900055F8047B92E7089A9442099A73EB02014D
:1052A00009DAB16801390029B16008DB3168481CAE
:1052B000306081F800B0013443F100038FE73146DC
:1052C0005846079303F0E1FE079BF4E73146384662
:1052D00003F0DBFEA9E7089B9C42099B78EB0303E4
:1052E00009DAB368013B002BB36008DB33685A1C52
:1052F000326083F800B0013448F100089FE731467E
:10530000202003F0C2FEF6E767062A6805F10403D1
:1053100005D54FEAE871C2E900811D4698E7A50668
:1053200002D5C2F80080F8E7E00502D582F80080D7
:10533000F3E72106F5D5A2F80080EEE755F804ABB7
:10534000AA4BBAF1000F08BF9A46504603F0DEFDA3
:10535000E706814602D55845A8BFD946059BA3EB71
:10536000090714F00103059310D114F4007F0CBF5A
:10537000202230224446BB464FEAE873BBF1010BC2
:1053800020D527EAE773013F9844FF1A44464FF0BF
:10539000000B4FEAE873CB4530DB059BB9F1000FFA
:1053A000A8BFC844002B3FF453AF4446B9464FF062
:1053B000200B4FEAE87AB9F101093ED5002FA8BFCA
:1053C000B84445E708998C42099973EB010108DA62
:1053D000B16801390029B16007DB3168481C3060D1
:1053E0000A70013443F10003C8E7104631460793C1
:1053F000069203F04AFEDDE90623F2E7089A94429A
:10540000099A73EB02020ADAB268013A002AB26022
:105410000BDB3268511C31601AF80B10117001342B
:105420000BF1010B43F10003B5E731461AF80B000D
:10543000069303F02AFE069BF1E7089B9C42099B1A
:105440007AEB030309DAB368013B002BB36008DB96
:1054500033685A1C326083F800B001344AF1000A04
:10546000A9E73146202003F010FEF6E714F04002D1
:105470001DBFEA1D22F00702154655F8043B1CBF6C
:1054800055F8083B526814F080010DD000229BB201
:10549000574914F0080F574818BF0846E10601D5D0
:1054A00024F4007454492EE0E00544BF0A4603F09A
:1054B000FF03EDE714F040021DBFEA1D22F00702D2
:1054C000154655F8043B1CBF55F8083B526814F0CC
:1054D00080010DD000229BB2484914F0080F4548C6
:1054E00018BF0846E10601D524F4007444490AE0D7
:1054F000E00544BF0A4603F0FF03EDE7002255F83C
:10550000043B3F493D48CDE90EB04FF0FF30DDF898
:1055100020C0CDE91000BCEB080CCDF818C0DDF8B8
:1055200024C04FF000006CEBE87CCDF81CC00DF1FE
:10553000500CE6464FF05509013020280EF8019B2B
:10554000FAD114F4826F04BF01200E906E2F00F385
:105550009180472F00F39F805123A7F14102D34050
:1055600013F0010340F093814FF0000BCEE014F0F4
:1055700040021DBFEA1D22F00702154655F8043B04
:105580001CBF55F8083B526814F0800108D0002277
:105590009BB218481B4914F0080F18BF08464BE08F
:1055A000E00544BF0A4603F0FF03F2E714F04002AF
:1055B0001DBFEA1D22F00702154655F8043B1CBF2B
:1055C00055F8083B526814F0800109D000229BB2C4
:1055D00014F0100102D0002124F40074054892E771
:1055E000E00544BF0A4603F0FF03F1E7549A0000C8
:1055F0005B9A0000A29A0000639A00005E9A000085
:10560000749A0000619A0000600643BFEA1D22F010
:105610000702154655F8043B46BF55F8083B52684B
:10562000DA17210610D543F3C0321BB2002A11DA73
:105630005B42B74862EB420214F010013FF463AFE3
:10564000002124F400745EE7E00544BF43F3C01278
:105650005BB2EBE7A10704D4AE48AF4914F0040FE6
:105660009BE7AE48E8E7E3065CBF4FF00D0B44F064
:105670001004FAE56F3F4FF0000B092F46D8DFE822
:1056800017F0B90042004500450045004500030100
:10569000450045004200A7F1580011283FF664AFCD
:1056A0000FF2040E5EF820F0D95700006955000093
:1056B00069550000695500006955000069550000F2
:1056C0006955000069550000695500008F580000B9
:1056D0006955000069550000855800008F5800008A
:1056E0008F5800008F580000695500008558000051
:1056F00003F00F00085C1B0943EA02730BF1010B76
:105700000CF8010B120953EA0200F1D114F4806382
:105710000B9300F0CC8000230E93109B002BC4BF92
:1057200003F1FF330E93119B0E9A002B02DD013B18
:1057300013440E930F980E9F03F0E8FB059B5F4404
:10574000DF1B3B1A40F201270593274004F00103B9
:105750000C9300F0D6800027B9464FEAE77A0F9BFA
:105760005A1C0F921B780A93002B40F0D9800C9B97
:10577000ABB914F4007F0CBF202330233C46DDF886
:1057800014904FEAE77AB9F1010940F1E480059BF2
:10579000059A23EAE373013A1F44D31A05930B9B3E
:1057A000002B00F0F2804FF0300A0A9B9B4500F37B
:1057B00005810C9B73B13C464FF0200BDDF8149033
:1057C0004FEAE77AB9F1010940F18F81059B002B7F
:1057D000A8BFFF18B8443BE54FF0000B93E703F078
:1057E00007013031DB0843EA42730BF1010B0CF87F
:1057F000011BD20853EA0201F1D187E758089F083C
:1058000040EAC27047EA8277C7194FEA920141EB3A
:105810005201380940EA01703F1841EB1111380A72
:1058200040EA01603F1841EB1121380C40EA014089
:10583000381841EB1141401841F10001C00840EA1D
:1058400041709F1D42F1000AA0FB0E92C9080EFB99
:105850000122B7EB09076AEB02023F0947EA027728
:105860003F1803F1300307EB8700A3EB40030CF86C
:10587000013B3B460BF1010B41EB121253EA0201D3
:10588000BCD143E74FF0000B4FF00A0EF6E711AB27
:10589000039310AB02930EAB01930FAB384600930A
:1058A000289F234614AA12A9B84783462EE70E9BC9
:1058B0000B9AB3EB0B0348BF13463AE7069A97429D
:1058C000079A79EB020208DAB268013A002AB2605C
:1058D00011DB3268511C31601370013749F1000946
:1058E000AAEB0702002AE9DA059B23EAE377AAEB91
:1058F0000703059330E73146202003F0C6FB202341
:10590000EBE7059BB94603F1FF3A2023E8E700BF28
:10591000209A0000A29A00001E9A00001C9A000023
:10592000069B01379945079B7AEB030309DAB368B5
:10593000013B002BB36009DB33685A1C32600A9AC2
:105940001A7019F101094AF1000A08E731460A986C
:1059500003F09BFBF5E7069A9442079A7AEB020262
:1059600008DAB268013A002AB26007DB3268511CDB
:105970003160137001344AF1000A04E718463146D9
:105980000D9303F082FB0D9BF4E73C464FF0300A89
:105990004FEAE7790E9B013B002B0E9370DA3C46F1
:1059A0005A464FEAE77914AB002A02F1FF3A00F3B6
:1059B0008180BBF1000FA8BF5F44FAE60A9B14AADE
:1059C000D05CFC173C281DD03E2845D1B946119B20
:1059D000013B002B11931BDB069B01379945079B6D
:1059E00074EB030309DAB368013B002BB3602EDBD1
:1059F00033685A1C326083F800A019F1010944F1A0
:105A00000004E4E7B946109B013B002B109303DA36
:105A10000A9B01330A93C8E6069B01379945079B09
:105A200074EB030309DAB368013B002BB36009DBB5
:105A300033685A1C326083F800A019F1010944F15F
:105A40000004E0E73146302003F01FFBF5E7314664
:105A5000302003F01AFBD0E7069B9F42079B9C4136
:105A600008DAB368013B002BB36005DB33685A1CCE
:105A7000326018700137CBE7314603F006FBF9E7D7
:105A8000069B01379C42079B79EB030309DAB36855
:105A9000013B002BB36008DB33685A1C326083F88B
:105AA00000A0013449F1000974E73146302003F0C9
:105AB000ECFAF6E7069A9442079A79EB02020ADAC0
:105AC000B2681AF80300013A002AB26008DB3268B3
:105AD000511C316010700134524649F1000963E7EE
